{
  "contractName": "ItemManager",
  "abi": [
    {
      "anonymous": false,
      "inputs": [
        {
          "indexed": true,
          "internalType": "address",
          "name": "previousOwner",
          "type": "address"
        },
        {
          "indexed": true,
          "internalType": "address",
          "name": "newOwner",
          "type": "address"
        }
      ],
      "name": "OwnershipTransferred",
      "type": "event"
    },
    {
      "anonymous": false,
      "inputs": [
        {
          "indexed": false,
          "internalType": "uint256",
          "name": "_itemIndex",
          "type": "uint256"
        },
        {
          "indexed": false,
          "internalType": "uint256",
          "name": "_step",
          "type": "uint256"
        },
        {
          "indexed": false,
          "internalType": "address",
          "name": "_itemAddress",
          "type": "address"
        },
        {
          "indexed": false,
          "internalType": "string",
          "name": "_identifier",
          "type": "string"
        },
        {
          "indexed": false,
          "internalType": "uint256",
          "name": "_itemPrice",
          "type": "uint256"
        }
      ],
      "name": "SupplyChainStep",
      "type": "event"
    },
    {
      "inputs": [
        {
          "internalType": "uint256",
          "name": "",
          "type": "uint256"
        }
      ],
      "name": "items",
      "outputs": [
        {
          "internalType": "contract Item",
          "name": "_item",
          "type": "address"
        },
        {
          "internalType": "string",
          "name": "_identifier",
          "type": "string"
        },
        {
          "internalType": "uint256",
          "name": "_itemPrice",
          "type": "uint256"
        },
        {
          "internalType": "string",
          "name": "_itemCategory",
          "type": "string"
        },
        {
          "internalType": "string",
          "name": "_itemCondition",
          "type": "string"
        },
        {
          "internalType": "enum ItemManager.SupplyChainState",
          "name": "_state",
          "type": "uint8"
        }
      ],
      "stateMutability": "view",
      "type": "function",
      "constant": true
    },
    {
      "inputs": [],
      "name": "owner",
      "outputs": [
        {
          "internalType": "address",
          "name": "",
          "type": "address"
        }
      ],
      "stateMutability": "view",
      "type": "function",
      "constant": true
    },
    {
      "inputs": [],
      "name": "renounceOwnership",
      "outputs": [],
      "stateMutability": "nonpayable",
      "type": "function"
    },
    {
      "inputs": [
        {
          "internalType": "address",
          "name": "newOwner",
          "type": "address"
        }
      ],
      "name": "transferOwnership",
      "outputs": [],
      "stateMutability": "nonpayable",
      "type": "function"
    },
    {
      "inputs": [
        {
          "internalType": "string",
          "name": "_identifier",
          "type": "string"
        },
        {
          "internalType": "uint256",
          "name": "_itemPrice",
          "type": "uint256"
        },
        {
          "internalType": "string",
          "name": "_itemCategory",
          "type": "string"
        },
        {
          "internalType": "string",
          "name": "_itemCondition",
          "type": "string"
        }
      ],
      "name": "createItem",
      "outputs": [],
      "stateMutability": "nonpayable",
      "type": "function"
    },
    {
      "inputs": [],
      "name": "getTotalItemCount",
      "outputs": [
        {
          "internalType": "uint256",
          "name": "",
          "type": "uint256"
        }
      ],
      "stateMutability": "view",
      "type": "function",
      "constant": true
    }
  ],
  "bytecode": "0x608060405234801561001057600080fd5b5060006100216100c460201b60201c565b9050806000806101000a81548173ffffffffffffffffffffffffffffffffffffffff021916908373ffffffffffffffffffffffffffffffffffffffff1602179055508073ffffffffffffffffffffffffffffffffffffffff16600073ffffffffffffffffffffffffffffffffffffffff167f8be0079c531659141344cd1fd0a4f28419497f9722a3daafe3b4186f6b6457e060405160405180910390a3506100cc565b600033905090565b611c50806100db6000396000f3fe60806040523480156200001157600080fd5b50600436106200006a5760003560e01c80635091c2f6146200006f5780636043f75b146200008f578063715018a614620000b15780638da5cb5b14620000bd578063bfb231d214620000df578063f2fde38b146200011a575b600080fd5b6200008d600480360381019062000087919062000aff565b6200013a565b005b620000996200042d565b604051620000a8919062000e59565b60405180910390f35b620000bb62000437565b005b620000c762000578565b604051620000d6919062000d22565b60405180910390f35b620000fd6004803603810190620000f7919062000bb6565b620005a1565b604051620001119695949392919062000d93565b60405180910390f35b62000138600480360381019062000132919062000ad3565b620007ba565b005b620001446200096d565b73ffffffffffffffffffffffffffffffffffffffff166200016462000578565b73ffffffffffffffffffffffffffffffffffffffff1614620001bd576040517f08c379a0000000000000000000000000000000000000000000000000000000008152600401620001b49062000e37565b60405180910390fd5b6000308585600254604051620001d39062000975565b620001e2949392919062000d3f565b604051809103906000f080158015620001ff573d6000803e3d6000fd5b5090508060016000600254815260200190815260200160002060000160006101000a81548173ffffffffffffffffffffffffffffffffffffffff021916908373ffffffffffffffffffffffffffffffffffffffff1602179055508460016000600254815260200190815260200160002060010190805190602001906200028792919062000983565b508360016000600254815260200190815260200160002060020181905550826001600060025481526020019081526020016000206003019080519060200190620002d392919062000983565b508160016000600254815260200190815260200160002060040190805190602001906200030292919062000983565b50600060016000600254815260200190815260200160002060050160006101000a81548160ff0219169083600281111562000366577f4e487b7100000000000000000000000000000000000000000000000000000000600052602160045260246000fd5b02179055507f98a13257932b1fbc8e6303809b8bc82856ee750944d5322b8d254ae2e3b797fb60025460016000600254815260200190815260200160002060050160009054906101000a900460ff166002811115620003ee577f4e487b7100000000000000000000000000000000000000000000000000000000600052602160045260246000fd5b8388886040516200040495949392919062000e76565b60405180910390a16002600081548092919062000421906200108f565b91905055505050505050565b6000600254905090565b620004416200096d565b73ffffffffffffffffffffffffffffffffffffffff166200046162000578565b73ffffffffffffffffffffffffffffffffffffffff1614620004ba576040517f08c379a0000000000000000000000000000000000000000000000000000000008152600401620004b19062000e37565b60405180910390fd5b600073ffffffffffffffffffffffffffffffffffffffff1660008054906101000a900473ffffffffffffffffffffffffffffffffffffffff1673ffffffffffffffffffffffffffffffffffffffff167f8be0079c531659141344cd1fd0a4f28419497f9722a3daafe3b4186f6b6457e060405160405180910390a360008060006101000a81548173ffffffffffffffffffffffffffffffffffffffff021916908373ffffffffffffffffffffffffffffffffffffffff160217905550565b60008060009054906101000a900473ffffffffffffffffffffffffffffffffffffffff16905090565b60016020528060005260406000206000915090508060000160009054906101000a900473ffffffffffffffffffffffffffffffffffffffff1690806001018054620005ec9062001059565b80601f01602080910402602001604051908101604052809291908181526020018280546200061a9062001059565b80156200066b5780601f106200063f576101008083540402835291602001916200066b565b820191906000526020600020905b8154815290600101906020018083116200064d57829003601f168201915b505050505090806002015490806003018054620006889062001059565b80601f0160208091040260200160405190810160405280929190818152602001828054620006b69062001059565b8015620007075780601f10620006db5761010080835404028352916020019162000707565b820191906000526020600020905b815481529060010190602001808311620006e957829003601f168201915b5050505050908060040180546200071e9062001059565b80601f01602080910402602001604051908101604052809291908181526020018280546200074c9062001059565b80156200079d5780601f1062000771576101008083540402835291602001916200079d565b820191906000526020600020905b8154815290600101906020018083116200077f57829003601f168201915b5050505050908060050160009054906101000a900460ff16905086565b620007c46200096d565b73ffffffffffffffffffffffffffffffffffffffff16620007e462000578565b73ffffffffffffffffffffffffffffffffffffffff16146200083d576040517f08c379a0000000000000000000000000000000000000000000000000000000008152600401620008349062000e37565b60405180910390fd5b600073ffffffffffffffffffffffffffffffffffffffff168173ffffffffffffffffffffffffffffffffffffffff161415620008b0576040517f08c379a0000000000000000000000000000000000000000000000000000000008152600401620008a79062000e15565b60405180910390fd5b8073ffffffffffffffffffffffffffffffffffffffff1660008054906101000a900473ffffffffffffffffffffffffffffffffffffffff1673ffffffffffffffffffffffffffffffffffffffff167f8be0079c531659141344cd1fd0a4f28419497f9722a3daafe3b4186f6b6457e060405160405180910390a3806000806101000a81548173ffffffffffffffffffffffffffffffffffffffff021916908373ffffffffffffffffffffffffffffffffffffffff16021790555050565b600033905090565b610a2580620011f683390190565b828054620009919062001059565b90600052602060002090601f016020900481019282620009b5576000855562000a01565b82601f10620009d057805160ff191683800117855562000a01565b8280016001018555821562000a01579182015b8281111562000a00578251825591602001919060010190620009e3565b5b50905062000a10919062000a14565b5090565b5b8082111562000a2f57600081600090555060010162000a15565b5090565b600062000a4a62000a448462000f0e565b62000eda565b90508281526020810184848401111562000a6357600080fd5b62000a7084828562001014565b509392505050565b60008135905062000a8981620011c1565b92915050565b600082601f83011262000aa157600080fd5b813562000ab384826020860162000a33565b91505092915050565b60008135905062000acd81620011db565b92915050565b60006020828403121562000ae657600080fd5b600062000af68482850162000a78565b91505092915050565b6000806000806080858703121562000b1657600080fd5b600085013567ffffffffffffffff81111562000b3157600080fd5b62000b3f8782880162000a8f565b945050602062000b528782880162000abc565b935050604085013567ffffffffffffffff81111562000b7057600080fd5b62000b7e8782880162000a8f565b925050606085013567ffffffffffffffff81111562000b9c57600080fd5b62000baa8782880162000a8f565b91505092959194509250565b60006020828403121562000bc957600080fd5b600062000bd98482850162000abc565b91505092915050565b62000bed8162000f5d565b82525050565b62000bfe8162000fb0565b82525050565b62000c0f8162000fd8565b82525050565b62000c208162001000565b82525050565b600062000c338262000f41565b62000c3f818562000f4c565b935062000c5181856020860162001023565b62000c5c8162001199565b840191505092915050565b600062000c7660268362000f4c565b91507f4f776e61626c653a206e6577206f776e657220697320746865207a65726f206160008301527f64647265737300000000000000000000000000000000000000000000000000006020830152604082019050919050565b600062000cde60208362000f4c565b91507f4f776e61626c653a2063616c6c6572206973206e6f7420746865206f776e65726000830152602082019050919050565b62000d1c8162000fa6565b82525050565b600060208201905062000d39600083018462000be2565b92915050565b600060808201905062000d56600083018762000bf3565b818103602083015262000d6a818662000c26565b905062000d7b604083018562000d11565b62000d8a606083018462000d11565b95945050505050565b600060c08201905062000daa600083018962000c04565b818103602083015262000dbe818862000c26565b905062000dcf604083018762000d11565b818103606083015262000de3818662000c26565b9050818103608083015262000df9818562000c26565b905062000e0a60a083018462000c15565b979650505050505050565b6000602082019050818103600083015262000e308162000c67565b9050919050565b6000602082019050818103600083015262000e528162000ccf565b9050919050565b600060208201905062000e70600083018462000d11565b92915050565b600060a08201905062000e8d600083018862000d11565b62000e9c602083018762000d11565b62000eab604083018662000be2565b818103606083015262000ebf818562000c26565b905062000ed0608083018462000d11565b9695505050505050565b6000604051905081810181811067ffffffffffffffff8211171562000f045762000f036200116a565b5b8060405250919050565b600067ffffffffffffffff82111562000f2c5762000f2b6200116a565b5b601f19601f8301169050602081019050919050565b600081519050919050565b600082825260208201905092915050565b600062000f6a8262000f86565b9050919050565b600081905062000f8182620011aa565b919050565b600073ffffffffffffffffffffffffffffffffffffffff82169050919050565b6000819050919050565b600062000fbd8262000fc4565b9050919050565b600062000fd18262000f86565b9050919050565b600062000fe58262000fec565b9050919050565b600062000ff98262000f86565b9050919050565b60006200100d8262000f71565b9050919050565b82818337600083830152505050565b60005b838110156200104357808201518184015260208101905062001026565b8381111562001053576000848401525b50505050565b600060028204905060018216806200107257607f821691505b602082108114156200108957620010886200113b565b5b50919050565b60006200109c8262000fa6565b91507fffffffffffffffffffffffffffffffffffffffffffffffffffffffffffffffff821415620010d257620010d1620010dd565b5b600182019050919050565b7f4e487b7100000000000000000000000000000000000000000000000000000000600052601160045260246000fd5b7f4e487b7100000000000000000000000000000000000000000000000000000000600052602160045260246000fd5b7f4e487b7100000000000000000000000000000000000000000000000000000000600052602260045260246000fd5b7f4e487b7100000000000000000000000000000000000000000000000000000000600052604160045260246000fd5b6000601f19601f8301169050919050565b60038110620011be57620011bd6200110c565b5b50565b620011cc8162000f5d565b8114620011d857600080fd5b50565b620011e68162000fa6565b8114620011f257600080fd5b5056fe60806040523480156200001157600080fd5b5060405162000a2538038062000a258339818101604052810190620000379190620001f9565b82600090805190602001906200004f929190620000a9565b50816001819055508060028190555083600460006101000a81548173ffffffffffffffffffffffffffffffffffffffff021916908373ffffffffffffffffffffffffffffffffffffffff1602179055505050505062000435565b828054620000b7906200036d565b90600052602060002090601f016020900481019282620000db576000855562000127565b82601f10620000f657805160ff191683800117855562000127565b8280016001018555821562000127579182015b828111156200012657825182559160200191906001019062000109565b5b5090506200013691906200013a565b5090565b5b80821115620001555760008160009055506001016200013b565b5090565b6000620001706200016a84620002b2565b6200027e565b9050828152602081018484840111156200018957600080fd5b6200019684828562000337565b509392505050565b600081519050620001af8162000401565b92915050565b600082601f830112620001c757600080fd5b8151620001d984826020860162000159565b91505092915050565b600081519050620001f3816200041b565b92915050565b600080600080608085870312156200021057600080fd5b600062000220878288016200019e565b945050602085015167ffffffffffffffff8111156200023e57600080fd5b6200024c87828801620001b5565b93505060406200025f87828801620001e2565b92505060606200027287828801620001e2565b91505092959194509250565b6000604051905081810181811067ffffffffffffffff82111715620002a857620002a7620003d2565b5b8060405250919050565b600067ffffffffffffffff821115620002d057620002cf620003d2565b5b601f19601f8301169050602081019050919050565b6000620002f2826200030d565b9050919050565b60006200030682620002e5565b9050919050565b600073ffffffffffffffffffffffffffffffffffffffff82169050919050565b6000819050919050565b60005b83811015620003575780820151818401526020810190506200033a565b8381111562000367576000848401525b50505050565b600060028204905060018216806200038657607f821691505b602082108114156200039d576200039c620003a3565b5b50919050565b7f4e487b7100000000000000000000000000000000000000000000000000000000600052602260045260246000fd5b7f4e487b7100000000000000000000000000000000000000000000000000000000600052604160045260246000fd5b6200040c81620002f9565b81146200041857600080fd5b50565b62000426816200032d565b81146200043257600080fd5b50565b6105e080620004456000396000f3fe6080604052600436106100385760003560e01c80632986c0e5146102505780633c8da5881461027b57806389794d00146102a657610241565b3661024157600060035414610082576040517f08c379a000000000000000000000000000000000000000000000000000000000815260040161007990610446565b60405180910390fd5b34600154146100c6576040517f08c379a00000000000000000000000000000000000000000000000000000000081526004016100bd90610486565b60405180910390fd5b34600360008282546100d891906104e8565b925050819055506000600460009054906101000a900473ffffffffffffffffffffffffffffffffffffffff1673ffffffffffffffffffffffffffffffffffffffff163460025460405160240161012e91906104a6565b6040516020818303038152906040527f800fb83f000000000000000000000000000000000000000000000000000000007bffffffffffffffffffffffffffffffffffffffffffffffffffffffff19166020820180517bffffffffffffffffffffffffffffffffffffffffffffffffffffffff83818316178352505050506040516101b8919061042f565b60006040518083038185875af1925050503d80600081146101f5576040519150601f19603f3d011682016040523d82523d6000602084013e6101fa565b606091505b505090508061023e576040517f08c379a000000000000000000000000000000000000000000000000000000000815260040161023590610466565b60405180910390fd5b50005b34801561024d57600080fd5b50005b34801561025c57600080fd5b506102656102d1565b60405161027291906104a6565b60405180910390f35b34801561028757600080fd5b506102906102d7565b60405161029d91906104a6565b60405180910390f35b3480156102b257600080fd5b506102bb6102dd565b6040516102c891906104a6565b60405180910390f35b60025481565b60015481565b60035481565b60006102ee826104c1565b6102f881856104cc565b9350610308818560208601610548565b80840191505092915050565b6000610321601d836104d7565b91507f5072696365206f66206974656d20697320616c726561647920706169640000006000830152602082019050919050565b6000610361602b836104d7565b91507f546865207472616e73616374696f6e2077736e2774207375636365737366756c60008301527f2c2063616e63656c696e670000000000000000000000000000000000000000006020830152604082019050919050565b60006103c7602e836104d7565b91507f4f6e6c792066756c6c207061796d656e747320616c6c6f7765642c206e6f207060008301527f61727469616c207061796d656e740000000000000000000000000000000000006020830152604082019050919050565b6104298161053e565b82525050565b600061043b82846102e3565b915081905092915050565b6000602082019050818103600083015261045f81610314565b9050919050565b6000602082019050818103600083015261047f81610354565b9050919050565b6000602082019050818103600083015261049f816103ba565b9050919050565b60006020820190506104bb6000830184610420565b92915050565b600081519050919050565b600081905092915050565b600082825260208201905092915050565b60006104f38261053e565b91506104fe8361053e565b9250827fffffffffffffffffffffffffffffffffffffffffffffffffffffffffffffffff038211156105335761053261057b565b5b828201905092915050565b6000819050919050565b60005b8381101561056657808201518184015260208101905061054b565b83811115610575576000848401525b50505050565b7f4e487b7100000000000000000000000000000000000000000000000000000000600052601160045260246000fdfea264697066735822122035ea9a6c80d224171e3823b27c3dbf628f56bf265e3fe679c25db7f14a42f4d564736f6c63430008000033a2646970667358221220ab15b5ccdc007ada385cc4cfcc23259df999d9d58d039d9f17a41a7d215abad564736f6c63430008000033",
  "immutableReferences": {},
  "source": "// SPDX-License-Identifier: GPL-3.0\n\npragma solidity ^0.8.0;\n\nimport \"./MyOwnableContract.sol\";\nimport \"./Item.sol\";\n\ncontract ItemManager is MyOwnableContract {\n\n    enum SupplyChainState {Created, Paid, Delivered}\n\n    struct S_Item {\n        Item _item;\n        string _identifier;\n        uint _itemPrice;\n        string _itemCategory;\n        string _itemCondition;\n        ItemManager.SupplyChainState _state;\n    }\n\n    mapping(uint => S_Item) public items;\n    uint itemIndex;\n\n    event SupplyChainStep(uint _itemIndex, uint _step, address _itemAddress, string _identifier, uint _itemPrice);\n    //event log(string _identifier, uint _itemPrice, address _itemAddress, address _parentAddress);\n\n    function createItem(string memory _identifier, uint _itemPrice, string memory _itemCategory, string memory _itemCondition) public onlyOwner {\n\n        Item item = new Item(this, _identifier, _itemPrice, itemIndex);\n\n        //emit log(_identifier, _itemPrice, address(item), address(this));\n\n         items[itemIndex]._item = item;\n         items[itemIndex]._identifier = _identifier;\n         items[itemIndex]._itemPrice = _itemPrice;\n         items[itemIndex]._itemCategory = _itemCategory;\n         items[itemIndex]._itemCondition = _itemCondition;\n         items[itemIndex]._state = SupplyChainState.Created;\n\n        emit SupplyChainStep(itemIndex, uint(items[itemIndex]._state), address(item), _identifier, _itemPrice);\n\n        itemIndex++;\n    }\n\n    // function triggerPayment(uint _itemIndex) public payable {\n    //     require(items[_itemIndex]._itemPrice == msg.value, \"Only full payments accepted\");\n    //     require(items[_itemIndex]._state == SupplyChainState.Created, \"Item is further in the chain\");\n\n    //     items[_itemIndex]._state = SupplyChainState.Paid;\n\n    //     emit SupplyChainStep(_itemIndex, uint(items[_itemIndex]._state), address(items[_itemIndex]._item));\n\n    // }\n\n    // function triggerDelivery(uint _itemIndex) public onlyOwner {\n    //     require(items[_itemIndex]._state == SupplyChainState.Paid, \"Item need to be fully paid before delivery\");\n    //     items[_itemIndex]._state = SupplyChainState.Delivered;\n\n    //     emit SupplyChainStep(_itemIndex, uint(items[_itemIndex]._state), address(items[_itemIndex]._item));\n\n    // }\n\n\n    function getTotalItemCount() public view returns (uint) {\n        return itemIndex;\n    }\n\n}",
  "sourcePath": "/Users/vinit/Dcu-workspace/eth/codebase/supply-chain-demo/contracts/ItemManager.sol",
  "compiler": {
    "name": "solc",
    "version": "0.8.0+commit.c7dfd78e.Emscripten.clang"
  },
  "schemaVersion": "3.4.16",
  "updatedAt": "2024-02-29T01:16:12.504Z",
  "networkType": "ethereum",
  "devdoc": {
    "kind": "dev",
    "methods": {
      "owner()": {
        "details": "Returns the address of the current owner."
      },
      "renounceOwnership()": {
        "details": "Leaves the contract without owner. It will not be possible to call `onlyOwner` functions anymore. Can only be called by the current owner. NOTE: Renouncing ownership will leave the contract without an owner, thereby removing any functionality that is only available to the owner."
      },
      "transferOwnership(address)": {
        "details": "Transfers ownership of the contract to a new account (`newOwner`). Can only be called by the current owner."
      }
    },
    "version": 1
  },
  "userdoc": {
    "kind": "user",
    "methods": {},
    "version": 1
  }
}