{
  "contractName": "ItemManager",
  "abi": [
    {
      "anonymous": false,
      "inputs": [
        {
          "indexed": false,
          "internalType": "string",
          "name": "_identifier",
          "type": "string"
        },
        {
          "indexed": false,
          "internalType": "uint256",
          "name": "_state",
          "type": "uint256"
        },
        {
          "indexed": false,
          "internalType": "address",
          "name": "_itemAddress",
          "type": "address"
        },
        {
          "indexed": false,
          "internalType": "string",
          "name": "_message",
          "type": "string"
        }
      ],
      "name": "DispatchEvent",
      "type": "event"
    },
    {
      "anonymous": false,
      "inputs": [
        {
          "indexed": false,
          "internalType": "address",
          "name": "_itemAddress",
          "type": "address"
        },
        {
          "indexed": false,
          "internalType": "address",
          "name": "_msgSender",
          "type": "address"
        },
        {
          "indexed": false,
          "internalType": "string",
          "name": "_message",
          "type": "string"
        }
      ],
      "name": "InvalidDispatcher",
      "type": "event"
    },
    {
      "anonymous": false,
      "inputs": [
        {
          "indexed": false,
          "internalType": "address",
          "name": "_itemAddress",
          "type": "address"
        },
        {
          "indexed": false,
          "internalType": "uint256",
          "name": "_itemPrice",
          "type": "uint256"
        },
        {
          "indexed": false,
          "internalType": "uint256",
          "name": "_state",
          "type": "uint256"
        },
        {
          "indexed": false,
          "internalType": "uint256",
          "name": "_payment",
          "type": "uint256"
        }
      ],
      "name": "MyLog",
      "type": "event"
    },
    {
      "anonymous": false,
      "inputs": [
        {
          "indexed": false,
          "internalType": "address",
          "name": "_caller",
          "type": "address"
        },
        {
          "indexed": false,
          "internalType": "string",
          "name": "_message",
          "type": "string"
        }
      ],
      "name": "NotOwnerEvent",
      "type": "event"
    },
    {
      "anonymous": false,
      "inputs": [
        {
          "indexed": true,
          "internalType": "address",
          "name": "previousOwner",
          "type": "address"
        },
        {
          "indexed": true,
          "internalType": "address",
          "name": "newOwner",
          "type": "address"
        }
      ],
      "name": "OwnershipTransferred",
      "type": "event"
    },
    {
      "anonymous": false,
      "inputs": [
        {
          "indexed": false,
          "internalType": "string",
          "name": "_identifier",
          "type": "string"
        },
        {
          "indexed": false,
          "internalType": "uint256",
          "name": "_step",
          "type": "uint256"
        },
        {
          "indexed": false,
          "internalType": "address",
          "name": "_itemAddress",
          "type": "address"
        },
        {
          "indexed": false,
          "internalType": "uint256",
          "name": "_itemPrice",
          "type": "uint256"
        }
      ],
      "name": "SupplyChainStep",
      "type": "event"
    },
    {
      "anonymous": false,
      "inputs": [
        {
          "indexed": false,
          "internalType": "string",
          "name": "_message",
          "type": "string"
        }
      ],
      "name": "ValidationMessage",
      "type": "event"
    },
    {
      "inputs": [
        {
          "internalType": "address",
          "name": "",
          "type": "address"
        }
      ],
      "name": "items",
      "outputs": [
        {
          "internalType": "contract Item",
          "name": "_item",
          "type": "address"
        },
        {
          "internalType": "string",
          "name": "_identifier",
          "type": "string"
        },
        {
          "internalType": "uint256",
          "name": "_itemPrice",
          "type": "uint256"
        },
        {
          "internalType": "enum ItemManager.SupplyChainState",
          "name": "_state",
          "type": "uint8"
        }
      ],
      "stateMutability": "view",
      "type": "function",
      "constant": true
    },
    {
      "inputs": [],
      "name": "owner",
      "outputs": [
        {
          "internalType": "address",
          "name": "",
          "type": "address"
        }
      ],
      "stateMutability": "view",
      "type": "function",
      "constant": true
    },
    {
      "inputs": [],
      "name": "renounceOwnership",
      "outputs": [],
      "stateMutability": "nonpayable",
      "type": "function"
    },
    {
      "inputs": [
        {
          "internalType": "address",
          "name": "newOwner",
          "type": "address"
        }
      ],
      "name": "transferOwnership",
      "outputs": [],
      "stateMutability": "nonpayable",
      "type": "function"
    },
    {
      "inputs": [
        {
          "internalType": "string",
          "name": "_identifier",
          "type": "string"
        },
        {
          "internalType": "uint256",
          "name": "_itemPrice",
          "type": "uint256"
        }
      ],
      "name": "createItem",
      "outputs": [],
      "stateMutability": "nonpayable",
      "type": "function"
    },
    {
      "inputs": [
        {
          "internalType": "address",
          "name": "_itemAddress",
          "type": "address"
        },
        {
          "internalType": "uint256",
          "name": "_itemPrice",
          "type": "uint256"
        }
      ],
      "name": "triggerPayment",
      "outputs": [],
      "stateMutability": "payable",
      "type": "function",
      "payable": true
    },
    {
      "inputs": [
        {
          "internalType": "address",
          "name": "_itemAddress",
          "type": "address"
        }
      ],
      "name": "triggerDelivery",
      "outputs": [],
      "stateMutability": "nonpayable",
      "type": "function"
    },
    {
      "inputs": [
        {
          "internalType": "string",
          "name": "str1",
          "type": "string"
        },
        {
          "internalType": "string",
          "name": "str2",
          "type": "string"
        }
      ],
      "name": "concatenateStrings",
      "outputs": [
        {
          "internalType": "string",
          "name": "",
          "type": "string"
        }
      ],
      "stateMutability": "pure",
      "type": "function",
      "constant": true
    },
    {
      "inputs": [],
      "name": "getTotalItemCount",
      "outputs": [
        {
          "internalType": "uint256",
          "name": "",
          "type": "uint256"
        }
      ],
      "stateMutability": "view",
      "type": "function",
      "constant": true
    },
    {
      "inputs": [
        {
          "internalType": "address",
          "name": "itemAddress",
          "type": "address"
        }
      ],
      "name": "getItem",
      "outputs": [
        {
          "internalType": "string",
          "name": "",
          "type": "string"
        }
      ],
      "stateMutability": "view",
      "type": "function",
      "constant": true
    }
  ],
  "bytecode": "0x608060405234801561001057600080fd5b5060006100216100c460201b60201c565b9050806000806101000a81548173ffffffffffffffffffffffffffffffffffffffff021916908373ffffffffffffffffffffffffffffffffffffffff1602179055508073ffffffffffffffffffffffffffffffffffffffff16600073ffffffffffffffffffffffffffffffffffffffff167f8be0079c531659141344cd1fd0a4f28419497f9722a3daafe3b4186f6b6457e060405160405180910390a3506100cc565b600033905090565b612a11806100db6000396000f3fe6080604052600436106200009e5760003560e01c80638c55174211620000615780638c55174214620001a35780638da5cb5b14620001d15780639de585c11462000201578063d321411c1462000221578063f2fde38b1462000268576200009e565b806314d8c98114620000a357806314f5acf214620000e75780636043f75b1462000115578063715018a614620001455780637a36b3ee146200015f575b600080fd5b348015620000b057600080fd5b50620000cf6004803603810190620000c991906200184f565b62000296565b604051620000de919062002092565b60405180910390f35b348015620000f457600080fd5b506200011360048036038101906200010d91906200184f565b62000372565b005b3480156200012257600080fd5b506200012d62000926565b6040516200013c9190620021ed565b60405180910390f35b3480156200015257600080fd5b506200015d62000930565b005b3480156200016c57600080fd5b506200018b6004803603810190620001859190620018bc565b62000a71565b6040516200019a919062002092565b60405180910390f35b348015620001b057600080fd5b50620001cf6004803603810190620001c991906200192f565b62000a9f565b005b348015620001de57600080fd5b50620001e962000e49565b604051620001f8919062001e66565b60405180910390f35b6200021f60048036038101906200021991906200187b565b62000e72565b005b3480156200022e57600080fd5b506200024d60048036038101906200024791906200184f565b62001449565b6040516200025f94939291906200203e565b60405180910390f35b3480156200027557600080fd5b506200029460048036038101906200028e91906200184f565b62001536565b005b6060600160008373ffffffffffffffffffffffffffffffffffffffff1673ffffffffffffffffffffffffffffffffffffffff1681526020019081526020016000206001018054620002e790620023a9565b80601f01602080910402602001604051908101604052809291908181526020018280546200031590620023a9565b8015620003665780601f106200033a5761010080835404028352916020019162000366565b820191906000526020600020905b8154815290600101906020018083116200034857829003601f168201915b50505050509050919050565b6200037c62000e49565b73ffffffffffffffffffffffffffffffffffffffff166200039c620016e9565b73ffffffffffffffffffffffffffffffffffffffff161462000402577fbaa5df3ba2ffac2f5dbdfdb50e75a22b788c8cb19c21dfcbfa0e914287d15aac81620003e4620016e9565b604051620003f492919062001e83565b60405180910390a162000923565b600060028111156200043d577f4e487b7100000000000000000000000000000000000000000000000000000000600052602160045260246000fd5b600160008373ffffffffffffffffffffffffffffffffffffffff1673ffffffffffffffffffffffffffffffffffffffff16815260200190815260200160002060030160009054906101000a900460ff166002811115620004c6577f4e487b7100000000000000000000000000000000000000000000000000000000600052602160045260246000fd5b141562000517577fbaa5df3ba2ffac2f5dbdfdb50e75a22b788c8cb19c21dfcbfa0e914287d15aac81620004f9620016e9565b6040516200050992919062001ec5565b60405180910390a162000922565b60028081111562000551577f4e487b7100000000000000000000000000000000000000000000000000000000600052602160045260246000fd5b600160008373ffffffffffffffffffffffffffffffffffffffff1673ffffffffffffffffffffffffffffffffffffffff16815260200190815260200160002060030160009054906101000a900460ff166002811115620005da577f4e487b7100000000000000000000000000000000000000000000000000000000600052602160045260246000fd5b14156200062b577fbaa5df3ba2ffac2f5dbdfdb50e75a22b788c8cb19c21dfcbfa0e914287d15aac816200060d620016e9565b6040516200061d92919062001f07565b60405180910390a162000921565b6002600160008373ffffffffffffffffffffffffffffffffffffffff1673ffffffffffffffffffffffffffffffffffffffff16815260200190815260200160002060030160006101000a81548160ff02191690836002811115620006b8577f4e487b7100000000000000000000000000000000000000000000000000000000600052602160045260246000fd5b02179055506000620007d26040518060400160405280601281526020017f446973706174636820737563636573733a200000000000000000000000000000815250600160008573ffffffffffffffffffffffffffffffffffffffff1673ffffffffffffffffffffffffffffffffffffffff16815260200190815260200160002060010180546200074890620023a9565b80601f01602080910402602001604051908101604052809291908181526020018280546200077690620023a9565b8015620007c75780601f106200079b57610100808354040283529160200191620007c7565b820191906000526020600020905b815481529060010190602001808311620007a957829003601f168201915b505050505062000a71565b905062000815816040518060400160405280601581526020017f206973206f757420666f722064656c697665727921000000000000000000000081525062000a71565b90507f7f449ef3ffd8c2662908e012f2969236975c58744b40ab5a0544b43e1454dfba600160008473ffffffffffffffffffffffffffffffffffffffff1673ffffffffffffffffffffffffffffffffffffffff168152602001908152602001600020600101600160008573ffffffffffffffffffffffffffffffffffffffff1673ffffffffffffffffffffffffffffffffffffffff16815260200190815260200160002060030160009054906101000a900460ff16600281111562000903577f4e487b7100000000000000000000000000000000000000000000000000000000600052602160045260246000fd5b8484604051620009179493929190620020b6565b60405180910390a1505b5b5b50565b6000600254905090565b6200093a620016e9565b73ffffffffffffffffffffffffffffffffffffffff166200095a62000e49565b73ffffffffffffffffffffffffffffffffffffffff1614620009b3576040517f08c379a0000000000000000000000000000000000000000000000000000000008152600401620009aa90620021a9565b60405180910390fd5b600073ffffffffffffffffffffffffffffffffffffffff1660008054906101000a900473ffffffffffffffffffffffffffffffffffffffff1673ffffffffffffffffffffffffffffffffffffffff167f8be0079c531659141344cd1fd0a4f28419497f9722a3daafe3b4186f6b6457e060405160405180910390a360008060006101000a81548173ffffffffffffffffffffffffffffffffffffffff021916908373ffffffffffffffffffffffffffffffffffffffff160217905550565b6060828260405160200162000a8892919062001e3e565b604051602081830303815290604052905092915050565b62000aa962000e49565b73ffffffffffffffffffffffffffffffffffffffff1662000ac9620016e9565b73ffffffffffffffffffffffffffffffffffffffff161462000b2d577f7bfbd8d5eb9e55fa286068ab04019f44bc8b5e4edb0c2a08401be2c5cdcc5df662000b10620016e9565b60405162000b1f919062001f49565b60405180910390a162000e45565b600030838360405162000b4090620016f1565b62000b4e9392919062001ffa565b604051809103906000f08015801562000b6b573d6000803e3d6000fd5b50905080600160008373ffffffffffffffffffffffffffffffffffffffff1673ffffffffffffffffffffffffffffffffffffffff16815260200190815260200160002060000160006101000a81548173ffffffffffffffffffffffffffffffffffffffff021916908373ffffffffffffffffffffffffffffffffffffffff16021790555082600160008373ffffffffffffffffffffffffffffffffffffffff1673ffffffffffffffffffffffffffffffffffffffff168152602001908152602001600020600101908051906020019062000c47929190620016ff565b5081600160008373ffffffffffffffffffffffffffffffffffffffff1673ffffffffffffffffffffffffffffffffffffffff168152602001908152602001600020600201819055506000600160008373ffffffffffffffffffffffffffffffffffffffff1673ffffffffffffffffffffffffffffffffffffffff16815260200190815260200160002060030160006101000a81548160ff0219169083600281111562000d1c577f4e487b7100000000000000000000000000000000000000000000000000000000600052602160045260246000fd5b02179055507fedbdfcf8cc592435bc8ca23428200230da576a019193008c9f3896f03e7bd759600160008373ffffffffffffffffffffffffffffffffffffffff1673ffffffffffffffffffffffffffffffffffffffff168152602001908152602001600020600101600160008473ffffffffffffffffffffffffffffffffffffffff1673ffffffffffffffffffffffffffffffffffffffff16815260200190815260200160002060030160009054906101000a900460ff16600281111562000e0d577f4e487b7100000000000000000000000000000000000000000000000000000000600052602160045260246000fd5b838560405162000e21949392919062002111565b60405180910390a16002600081548092919062000e3e90620023df565b9190505550505b5050565b60008060009054906101000a900473ffffffffffffffffffffffffffffffffffffffff16905090565b6000600190507fabf49c168776b4b3d5536999c29e18ef0d7ec2ab8c5f59e3fb05a9c3745dd46d83600160008673ffffffffffffffffffffffffffffffffffffffff1673ffffffffffffffffffffffffffffffffffffffff16815260200190815260200160002060020154600160008773ffffffffffffffffffffffffffffffffffffffff1673ffffffffffffffffffffffffffffffffffffffff16815260200190815260200160002060030160009054906101000a900460ff16600281111562000f66577f4e487b7100000000000000000000000000000000000000000000000000000000600052602160045260246000fd5b3460405162000f79949392919062001fad565b60405180910390a162000f8b62000e49565b73ffffffffffffffffffffffffffffffffffffffff1662000fab620016e9565b73ffffffffffffffffffffffffffffffffffffffff16141562001014577f7bfbd8d5eb9e55fa286068ab04019f44bc8b5e4edb0c2a08401be2c5cdcc5df662000ff3620016e9565b60405162001002919062001f7b565b60405180910390a160009050620011a1565b81600160008573ffffffffffffffffffffffffffffffffffffffff1673ffffffffffffffffffffffffffffffffffffffff16815260200190815260200160002060020154146200109a57600090507fefd0c5be3b31d9a011b17428735a9cce5054ae1318464339009565b2f7220010604051620010919062002187565b60405180910390a15b60006002811115620010d5577f4e487b7100000000000000000000000000000000000000000000000000000000600052602160045260246000fd5b600160008573ffffffffffffffffffffffffffffffffffffffff1673ffffffffffffffffffffffffffffffffffffffff16815260200190815260200160002060030160009054906101000a900460ff1660028111156200115e577f4e487b7100000000000000000000000000000000000000000000000000000000600052602160045260246000fd5b14620011a057600090507fefd0c5be3b31d9a011b17428735a9cce5054ae1318464339009565b2f72200106040516200119790620021cb565b60405180910390a15b5b8015620013eb5760018060008573ffffffffffffffffffffffffffffffffffffffff1673ffffffffffffffffffffffffffffffffffffffff16815260200190815260200160002060030160006101000a81548160ff0219169083600281111562001234577f4e487b7100000000000000000000000000000000000000000000000000000000600052602160045260246000fd5b02179055507fedbdfcf8cc592435bc8ca23428200230da576a019193008c9f3896f03e7bd759600160008573ffffffffffffffffffffffffffffffffffffffff1673ffffffffffffffffffffffffffffffffffffffff168152602001908152602001600020600101600160008673ffffffffffffffffffffffffffffffffffffffff1673ffffffffffffffffffffffffffffffffffffffff16815260200190815260200160002060030160009054906101000a900460ff16600281111562001325577f4e487b7100000000000000000000000000000000000000000000000000000000600052602160045260246000fd5b600160008773ffffffffffffffffffffffffffffffffffffffff1673ffffffffffffffffffffffffffffffffffffffff16815260200190815260200160002060000160009054906101000a900473ffffffffffffffffffffffffffffffffffffffff16600160008873ffffffffffffffffffffffffffffffffffffffff1673ffffffffffffffffffffffffffffffffffffffff16815260200190815260200160002060020154604051620013dd949392919062002111565b60405180910390a162001443565b620013f5620016e9565b73ffffffffffffffffffffffffffffffffffffffff166108fc349081150290604051600060405180830381858888f193505050501580156200143b573d6000803e3d6000fd5b505062001445565b505b5050565b60016020528060005260406000206000915090508060000160009054906101000a900473ffffffffffffffffffffffffffffffffffffffff16908060010180546200149490620023a9565b80601f0160208091040260200160405190810160405280929190818152602001828054620014c290620023a9565b8015620015135780601f10620014e75761010080835404028352916020019162001513565b820191906000526020600020905b815481529060010190602001808311620014f557829003601f168201915b5050505050908060020154908060030160009054906101000a900460ff16905084565b62001540620016e9565b73ffffffffffffffffffffffffffffffffffffffff166200156062000e49565b73ffffffffffffffffffffffffffffffffffffffff1614620015b9576040517f08c379a0000000000000000000000000000000000000000000000000000000008152600401620015b090620021a9565b60405180910390fd5b600073ffffffffffffffffffffffffffffffffffffffff168173ffffffffffffffffffffffffffffffffffffffff1614156200162c576040517f08c379a0000000000000000000000000000000000000000000000000000000008152600401620016239062002165565b60405180910390fd5b8073ffffffffffffffffffffffffffffffffffffffff1660008054906101000a900473ffffffffffffffffffffffffffffffffffffffff1673ffffffffffffffffffffffffffffffffffffffff167f8be0079c531659141344cd1fd0a4f28419497f9722a3daafe3b4186f6b6457e060405160405180910390a3806000806101000a81548173ffffffffffffffffffffffffffffffffffffffff021916908373ffffffffffffffffffffffffffffffffffffffff16021790555050565b600033905090565b610496806200254683390190565b8280546200170d90620023a9565b90600052602060002090601f0160209004810192826200173157600085556200177d565b82601f106200174c57805160ff19168380011785556200177d565b828001600101855582156200177d579182015b828111156200177c5782518255916020019190600101906200175f565b5b5090506200178c919062001790565b5090565b5b80821115620017ab57600081600090555060010162001791565b5090565b6000620017c6620017c0846200223e565b6200220a565b905082815260208101848484011115620017df57600080fd5b620017ec84828562002364565b509392505050565b600081359050620018058162002511565b92915050565b600082601f8301126200181d57600080fd5b81356200182f848260208601620017af565b91505092915050565b60008135905062001849816200252b565b92915050565b6000602082840312156200186257600080fd5b60006200187284828501620017f4565b91505092915050565b600080604083850312156200188f57600080fd5b60006200189f85828601620017f4565b9250506020620018b28582860162001838565b9150509250929050565b60008060408385031215620018d057600080fd5b600083013567ffffffffffffffff811115620018eb57600080fd5b620018f9858286016200180b565b925050602083013567ffffffffffffffff8111156200191757600080fd5b62001925858286016200180b565b9150509250929050565b600080604083850312156200194357600080fd5b600083013567ffffffffffffffff8111156200195e57600080fd5b6200196c858286016200180b565b92505060206200197f8582860162001838565b9150509250929050565b6200199481620022ad565b82525050565b620019a58162002300565b82525050565b620019b68162002328565b82525050565b620019c78162002350565b82525050565b6000620019da8262002286565b620019e6818562002291565b9350620019f881856020860162002373565b62001a0381620024e9565b840191505092915050565b600062001a1b8262002286565b62001a278185620022a2565b935062001a3981856020860162002373565b80840191505092915050565b6000815462001a5481620023a9565b62001a60818662002291565b9450600182166000811462001a7e576001811462001a915762001ac8565b60ff198316865260208601935062001ac8565b62001a9c8562002271565b60005b8381101562001ac05781548189015260018201915060208101905062001a9f565b808801955050505b50505092915050565b600062001ae060268362002291565b91507f4f776e61626c653a206e6577206f776e657220697320746865207a65726f206160008301527f64647265737300000000000000000000000000000000000000000000000000006020830152604082019050919050565b600062001b48601b8362002291565b91507f4f6e6c792066756c6c207061796d656e747320616363657074656400000000006000830152602082019050919050565b600062001b8a60408362002291565b91507f4469737061746368206661696c7572653a204f6e6c7920636f6e74726163742060008301527f6f776e65722063616e20696e697469617465207468652064656c6976657279216020830152604082019050919050565b600062001bf260348362002291565b91507f56616c69646174696f6e206661696c7572653a2043616c6c6572206973206e6f60008301527f742074686520636f6e7472616374206f776e65720000000000000000000000006020830152604082019050919050565b600062001c5a60338362002291565b91507f56616c69646174696f6e206661696c7572653a20596f752063616e277420627560008301527f7920796f7572206f776e2070726f6475637421000000000000000000000000006020830152604082019050919050565b600062001cc260208362002291565b91507f4f776e61626c653a2063616c6c6572206973206e6f7420746865206f776e65726000830152602082019050919050565b600062001d0460388362002291565b91507f4974656d20697320616c726561647920736f6c642c206675727468657220696e60008301527f2074686520636861696e20666f722064697370617463682100000000000000006020830152604082019050919050565b600062001d6c602a8362002291565b91507f4469737061746368206661696c7572653a204974656d206e6f742066756c6c7960008301527f20706169642079657421000000000000000000000000000000000000000000006020830152604082019050919050565b600062001dd4602a8362002291565b91507f4469737061746368206661696c7572653a204974656d20697320696e2064656c60008301527f6976657279206e6f7721000000000000000000000000000000000000000000006020830152604082019050919050565b62001e3881620022f6565b82525050565b600062001e4c828562001a0e565b915062001e5a828462001a0e565b91508190509392505050565b600060208201905062001e7d600083018462001989565b92915050565b600060608201905062001e9a600083018562001989565b62001ea9602083018462001989565b818103604083015262001ebc8162001b7b565b90509392505050565b600060608201905062001edc600083018562001989565b62001eeb602083018462001989565b818103604083015262001efe8162001d5d565b90509392505050565b600060608201905062001f1e600083018562001989565b62001f2d602083018462001989565b818103604083015262001f408162001dc5565b90509392505050565b600060408201905062001f60600083018462001989565b818103602083015262001f738162001be3565b905092915050565b600060408201905062001f92600083018462001989565b818103602083015262001fa58162001c4b565b905092915050565b600060808201905062001fc4600083018762001989565b62001fd3602083018662001e2d565b62001fe2604083018562001e2d565b62001ff1606083018462001e2d565b95945050505050565b60006060820190506200201160008301866200199a565b8181036020830152620020258185620019cd565b905062002036604083018462001e2d565b949350505050565b6000608082019050620020556000830187620019ab565b8181036020830152620020698186620019cd565b90506200207a604083018562001e2d565b620020896060830184620019bc565b95945050505050565b60006020820190508181036000830152620020ae8184620019cd565b905092915050565b60006080820190508181036000830152620020d2818762001a45565b9050620020e3602083018662001e2d565b620020f2604083018562001989565b8181036060830152620021068184620019cd565b905095945050505050565b600060808201905081810360008301526200212d818762001a45565b90506200213e602083018662001e2d565b6200214d604083018562001989565b6200215c606083018462001e2d565b95945050505050565b60006020820190508181036000830152620021808162001ad1565b9050919050565b60006020820190508181036000830152620021a28162001b39565b9050919050565b60006020820190508181036000830152620021c48162001cb3565b9050919050565b60006020820190508181036000830152620021e68162001cf5565b9050919050565b600060208201905062002204600083018462001e2d565b92915050565b6000604051905081810181811067ffffffffffffffff82111715620022345762002233620024ba565b5b8060405250919050565b600067ffffffffffffffff8211156200225c576200225b620024ba565b5b601f19601f8301169050602081019050919050565b60008190508160005260206000209050919050565b600081519050919050565b600082825260208201905092915050565b600081905092915050565b6000620022ba82620022d6565b9050919050565b6000819050620022d182620024fa565b919050565b600073ffffffffffffffffffffffffffffffffffffffff82169050919050565b6000819050919050565b60006200230d8262002314565b9050919050565b60006200232182620022d6565b9050919050565b600062002335826200233c565b9050919050565b60006200234982620022d6565b9050919050565b60006200235d82620022c1565b9050919050565b82818337600083830152505050565b60005b838110156200239357808201518184015260208101905062002376565b83811115620023a3576000848401525b50505050565b60006002820490506001821680620023c257607f821691505b60208210811415620023d957620023d86200248b565b5b50919050565b6000620023ec82620022f6565b91507fffffffffffffffffffffffffffffffffffffffffffffffffffffffffffffffff8214156200242257620024216200242d565b5b600182019050919050565b7f4e487b7100000000000000000000000000000000000000000000000000000000600052601160045260246000fd5b7f4e487b7100000000000000000000000000000000000000000000000000000000600052602160045260246000fd5b7f4e487b7100000000000000000000000000000000000000000000000000000000600052602260045260246000fd5b7f4e487b7100000000000000000000000000000000000000000000000000000000600052604160045260246000fd5b6000601f19601f8301169050919050565b600381106200250e576200250d6200245c565b5b50565b6200251c81620022ad565b81146200252857600080fd5b50565b6200253681620022f6565b81146200254257600080fd5b5056fe608060405234801561001057600080fd5b50604051610496380380610496833981810160405281019061003291906101ce565b8160009080519060200190610048929190610099565b508060018190555082600260006101000a81548173ffffffffffffffffffffffffffffffffffffffff021916908373ffffffffffffffffffffffffffffffffffffffff1602179055505050506103d5565b8280546100a590610317565b90600052602060002090601f0160209004810192826100c7576000855561010e565b82601f106100e057805160ff191683800117855561010e565b8280016001018555821561010e579182015b8281111561010d5782518255916020019190600101906100f2565b5b50905061011b919061011f565b5090565b5b80821115610138576000816000905550600101610120565b5090565b600061014f61014a84610266565b610235565b90508281526020810184848401111561016757600080fd5b6101728482856102e4565b509392505050565b600081519050610189816103a7565b92915050565b600082601f8301126101a057600080fd5b81516101b084826020860161013c565b91505092915050565b6000815190506101c8816103be565b92915050565b6000806000606084860312156101e357600080fd5b60006101f18682870161017a565b935050602084015167ffffffffffffffff81111561020e57600080fd5b61021a8682870161018f565b925050604061022b868287016101b9565b9150509250925092565b6000604051905081810181811067ffffffffffffffff8211171561025c5761025b610378565b5b8060405250919050565b600067ffffffffffffffff82111561028157610280610378565b5b601f19601f8301169050602081019050919050565b60006102a1826102ba565b9050919050565b60006102b382610296565b9050919050565b600073ffffffffffffffffffffffffffffffffffffffff82169050919050565b6000819050919050565b60005b838110156103025780820151818401526020810190506102e7565b83811115610311576000848401525b50505050565b6000600282049050600182168061032f57607f821691505b6020821081141561034357610342610349565b5b50919050565b7f4e487b7100000000000000000000000000000000000000000000000000000000600052602260045260246000fd5b7f4e487b7100000000000000000000000000000000000000000000000000000000600052604160045260246000fd5b6103b0816102a8565b81146103bb57600080fd5b50565b6103c7816102da565b81146103d257600080fd5b50565b60b3806103e36000396000f3fe6080604052348015600f57600080fd5b506004361060285760003560e01c80633c8da58814602d575b600080fd5b60336047565b604051603e9190605a565b60405180910390f35b60015481565b6054816073565b82525050565b6000602082019050606d6000830184604d565b92915050565b600081905091905056fea2646970667358221220f4b3d31fc54120e0e248516dbde6c403ce3171fa404a5565265865cabd376dc664736f6c63430008000033a264697066735822122015c47641ba1704f8ad003f01b77201eaf5f765072b1e7b9705e24fcb1c19a5b964736f6c63430008000033",
  "immutableReferences": {},
  "source": "// SPDX-License-Identifier: GPL-3.0\n\npragma solidity ^0.8.0;\n\nimport \"@openzeppelin/contracts/access/Ownable.sol\";\nimport \"./Item.sol\";\n\n// Smart contract responsible for \n// 1. Item creation in the store\n// 2. Buying an item from the store\n// 3. Payment handling\n// 4. Dispatching \n// 5. Tracking\n// This uses openzepplin's Ownable contract to provide the access and ownership managemnt\n\ncontract ItemManager is Ownable {\n\n    enum SupplyChainState {Created, Paid, Delivered}\n\n    struct S_Item {\n        Item _item;\n        string _identifier;\n        uint _itemPrice;\n        ItemManager.SupplyChainState _state;\n    }\n\n    //mapping(uint => S_Item) public items;\n    mapping(address => S_Item) public items;\n    uint itemIndex;\n\n    event SupplyChainStep(string _identifier, uint _step, address _itemAddress, uint _itemPrice);\n    \n    event MyLog(address _itemAddress, uint _itemPrice, uint _state, uint _payment);\n\n    event ValidationMessage(string _message);\n\n    event NotOwnerEvent(address _caller, string _message);\n//emit DispatchEvent(items[_itemAddress]._identifier, items[_itemAddress]._state, items[_itemAddress]._itemAddress, \"Dispatch success: \"+items[_itemAddress]._identifier+\" is out for delivery!\");\n    event DispatchEvent(string _identifier, uint _state, address _itemAddress, string _message);\n\n//emit NotRightOwnerEvent(_itemAddress, _msgSender(), \"Dispatch failure: Only contract owner can initiate the delivery!\");\n    event InvalidDispatcher(address _itemAddress, address _msgSender, string _message);\n\n    function createItem(string memory _identifier, uint _itemPrice) public {\n        if (_msgSender() != owner()) {\n            emit NotOwnerEvent(_msgSender(), \"Validation failure: Caller is not the contract owner\");\n            //require(_msgSender() == owner(), \">>> Not the owner\");\n        } else {\n            Item item = new Item(this, _identifier, _itemPrice);\n\n            //emit log(_identifier, _itemPrice, address(item), address(this));\n\n            items[address(item)]._item = item;\n            items[address(item)]._identifier = _identifier;\n            items[address(item)]._itemPrice = _itemPrice;\n            items[address(item)]._state = SupplyChainState.Created;\n\n            emit SupplyChainStep(items[address(item)]._identifier, uint(items[address(item)]._state), address(item), _itemPrice);\n\n            itemIndex++;\n        }\n    }\n\n    function triggerPayment(address _itemAddress, uint _itemPrice) public payable {\n\n        bool isValid = true;\n\n        emit MyLog(_itemAddress, uint(items[_itemAddress]._itemPrice), uint(items[_itemAddress]._state), msg.value);\n\n        if (_msgSender() == owner()) {\n\n            emit NotOwnerEvent(_msgSender(), \"Validation failure: You can't buy your own product!\");\n            isValid = false;\n        } else {\n\n            if(items[_itemAddress]._itemPrice != _itemPrice) {\n                isValid = false;\n                emit ValidationMessage(\"Only full payments accepted\");\n            }\n            \n            if(items[_itemAddress]._state != SupplyChainState.Created) {\n                isValid = false;\n                emit ValidationMessage(\"Item is already sold, further in the chain for dispatch!\");\n            }\n\n            //require(items[_itemAddress]._itemPrice == _itemPrice, \"Onlyyyyy full payments accepted\");\n            //require(items[_itemAddress]._state == SupplyChainState.Created, \"Item is further in the chain\");\n        \n        }\n\n        if(isValid) {\n            items[_itemAddress]._state = SupplyChainState.Paid;\n            emit SupplyChainStep(items[_itemAddress]._identifier, uint(items[_itemAddress]._state), address(items[_itemAddress]._item), items[_itemAddress]._itemPrice);\n        } else {\n            // Refund the transaction value (in wei) to the caller\n            payable(_msgSender()).transfer(msg.value);\n            return;\n        }\n\n    }\n\n    function triggerDelivery(address _itemAddress) public {\n        //require(items[_itemIndex]._state == SupplyChainState.Paid, \"Item need to be fully paid before delivery\");\n        \n        if (_msgSender() != owner()) {\n            emit InvalidDispatcher(_itemAddress, _msgSender(), \"Dispatch failure: Only contract owner can initiate the delivery!\");\n        } else {\n            if(items[_itemAddress]._state == SupplyChainState.Created) {\n                emit InvalidDispatcher(_itemAddress, _msgSender(), \"Dispatch failure: Item not fully paid yet!\");\n            } else if(items[_itemAddress]._state == SupplyChainState.Delivered) {\n                emit InvalidDispatcher(_itemAddress, _msgSender(), \"Dispatch failure: Item is in delivery now!\");\n            } else {\n                items[_itemAddress]._state = SupplyChainState.Delivered;\n                string memory customMsg = concatenateStrings(\"Dispatch success: \", items[_itemAddress]._identifier);\n                customMsg = concatenateStrings(customMsg, \" is out for delivery!\");\n                emit DispatchEvent(items[_itemAddress]._identifier, uint(items[_itemAddress]._state), _itemAddress, customMsg);\n            }\n        }\n    }\n\n    function concatenateStrings (string memory str1, string memory str2) public pure returns (string memory) {\n        return string(abi.encodePacked(str1, str2));\n    }\n\n    function getTotalItemCount() public view returns (uint) {\n        return itemIndex;\n    }\n\n\n    function getItem(address itemAddress) public view returns (string memory) {\n        return items[itemAddress]._identifier;\n    }\n\n}",
  "sourcePath": "/Users/vinit/Dcu-workspace/eth/codebase/project/supply-chain-demo/contracts/ItemManager.sol",
  "compiler": {
    "name": "solc",
    "version": "0.8.0+commit.c7dfd78e.Emscripten.clang"
  },
  "schemaVersion": "3.4.16",
  "updatedAt": "2024-03-02T15:06:33.890Z",
  "networkType": "ethereum",
  "devdoc": {
    "kind": "dev",
    "methods": {
      "owner()": {
        "details": "Returns the address of the current owner."
      },
      "renounceOwnership()": {
        "details": "Leaves the contract without owner. It will not be possible to call `onlyOwner` functions anymore. Can only be called by the current owner. NOTE: Renouncing ownership will leave the contract without an owner, thereby removing any functionality that is only available to the owner."
      },
      "transferOwnership(address)": {
        "details": "Transfers ownership of the contract to a new account (`newOwner`). Can only be called by the current owner."
      }
    },
    "version": 1
  },
  "userdoc": {
    "kind": "user",
    "methods": {},
    "version": 1
  }
}