{
  "contractName": "ItemManager",
  "abi": [
    {
      "anonymous": false,
      "inputs": [
        {
          "indexed": false,
          "internalType": "string",
          "name": "_identifier",
          "type": "string"
        },
        {
          "indexed": false,
          "internalType": "uint256",
          "name": "_state",
          "type": "uint256"
        },
        {
          "indexed": false,
          "internalType": "address",
          "name": "_itemAddress",
          "type": "address"
        },
        {
          "indexed": false,
          "internalType": "string",
          "name": "_message",
          "type": "string"
        }
      ],
      "name": "DispatchEvent",
      "type": "event"
    },
    {
      "anonymous": false,
      "inputs": [
        {
          "indexed": false,
          "internalType": "address",
          "name": "_itemAddress",
          "type": "address"
        },
        {
          "indexed": false,
          "internalType": "address",
          "name": "_msgSender",
          "type": "address"
        },
        {
          "indexed": false,
          "internalType": "string",
          "name": "_message",
          "type": "string"
        }
      ],
      "name": "InvalidDispatcher",
      "type": "event"
    },
    {
      "anonymous": false,
      "inputs": [
        {
          "indexed": false,
          "internalType": "address",
          "name": "_itemAddress",
          "type": "address"
        },
        {
          "indexed": false,
          "internalType": "uint256",
          "name": "_itemPrice",
          "type": "uint256"
        },
        {
          "indexed": false,
          "internalType": "uint256",
          "name": "_state",
          "type": "uint256"
        },
        {
          "indexed": false,
          "internalType": "uint256",
          "name": "_payment",
          "type": "uint256"
        }
      ],
      "name": "MyLog",
      "type": "event"
    },
    {
      "anonymous": false,
      "inputs": [
        {
          "indexed": false,
          "internalType": "address",
          "name": "_caller",
          "type": "address"
        },
        {
          "indexed": false,
          "internalType": "string",
          "name": "_message",
          "type": "string"
        }
      ],
      "name": "NotOwnerEvent",
      "type": "event"
    },
    {
      "anonymous": false,
      "inputs": [
        {
          "indexed": true,
          "internalType": "address",
          "name": "previousOwner",
          "type": "address"
        },
        {
          "indexed": true,
          "internalType": "address",
          "name": "newOwner",
          "type": "address"
        }
      ],
      "name": "OwnershipTransferred",
      "type": "event"
    },
    {
      "anonymous": false,
      "inputs": [
        {
          "indexed": false,
          "internalType": "string",
          "name": "_identifier",
          "type": "string"
        },
        {
          "indexed": false,
          "internalType": "uint256",
          "name": "_step",
          "type": "uint256"
        },
        {
          "indexed": false,
          "internalType": "address",
          "name": "_itemAddress",
          "type": "address"
        },
        {
          "indexed": false,
          "internalType": "uint256",
          "name": "_itemPrice",
          "type": "uint256"
        }
      ],
      "name": "SupplyChainStep",
      "type": "event"
    },
    {
      "anonymous": false,
      "inputs": [
        {
          "indexed": false,
          "internalType": "string",
          "name": "_identifier",
          "type": "string"
        },
        {
          "indexed": false,
          "internalType": "uint256",
          "name": "_state",
          "type": "uint256"
        },
        {
          "indexed": false,
          "internalType": "address",
          "name": "_itemAddress",
          "type": "address"
        },
        {
          "indexed": false,
          "internalType": "string",
          "name": "_message",
          "type": "string"
        }
      ],
      "name": "TrackingEvent",
      "type": "event"
    },
    {
      "anonymous": false,
      "inputs": [
        {
          "indexed": false,
          "internalType": "string",
          "name": "_message",
          "type": "string"
        }
      ],
      "name": "ValidationMessage",
      "type": "event"
    },
    {
      "inputs": [
        {
          "internalType": "address",
          "name": "",
          "type": "address"
        }
      ],
      "name": "items",
      "outputs": [
        {
          "internalType": "contract Item",
          "name": "_item",
          "type": "address"
        },
        {
          "internalType": "string",
          "name": "_identifier",
          "type": "string"
        },
        {
          "internalType": "uint256",
          "name": "_itemPrice",
          "type": "uint256"
        },
        {
          "internalType": "enum ItemManager.SupplyChainState",
          "name": "_state",
          "type": "uint8"
        }
      ],
      "stateMutability": "view",
      "type": "function",
      "constant": true
    },
    {
      "inputs": [],
      "name": "owner",
      "outputs": [
        {
          "internalType": "address",
          "name": "",
          "type": "address"
        }
      ],
      "stateMutability": "view",
      "type": "function",
      "constant": true
    },
    {
      "inputs": [],
      "name": "renounceOwnership",
      "outputs": [],
      "stateMutability": "nonpayable",
      "type": "function"
    },
    {
      "inputs": [
        {
          "internalType": "address",
          "name": "newOwner",
          "type": "address"
        }
      ],
      "name": "transferOwnership",
      "outputs": [],
      "stateMutability": "nonpayable",
      "type": "function"
    },
    {
      "inputs": [
        {
          "internalType": "string",
          "name": "_identifier",
          "type": "string"
        },
        {
          "internalType": "uint256",
          "name": "_itemPrice",
          "type": "uint256"
        }
      ],
      "name": "createItem",
      "outputs": [],
      "stateMutability": "nonpayable",
      "type": "function"
    },
    {
      "inputs": [
        {
          "internalType": "address",
          "name": "_itemAddress",
          "type": "address"
        },
        {
          "internalType": "uint256",
          "name": "_itemPrice",
          "type": "uint256"
        }
      ],
      "name": "triggerPayment",
      "outputs": [],
      "stateMutability": "payable",
      "type": "function",
      "payable": true
    },
    {
      "inputs": [
        {
          "internalType": "address",
          "name": "_itemAddress",
          "type": "address"
        }
      ],
      "name": "triggerDelivery",
      "outputs": [],
      "stateMutability": "nonpayable",
      "type": "function"
    },
    {
      "inputs": [
        {
          "internalType": "address",
          "name": "_itemAddress",
          "type": "address"
        }
      ],
      "name": "trackItem",
      "outputs": [
        {
          "internalType": "string",
          "name": "",
          "type": "string"
        }
      ],
      "stateMutability": "view",
      "type": "function",
      "constant": true
    },
    {
      "inputs": [
        {
          "internalType": "string",
          "name": "str1",
          "type": "string"
        },
        {
          "internalType": "string",
          "name": "str2",
          "type": "string"
        }
      ],
      "name": "concatenateStrings",
      "outputs": [
        {
          "internalType": "string",
          "name": "",
          "type": "string"
        }
      ],
      "stateMutability": "pure",
      "type": "function",
      "constant": true
    },
    {
      "inputs": [],
      "name": "getTotalItemCount",
      "outputs": [
        {
          "internalType": "uint256",
          "name": "",
          "type": "uint256"
        }
      ],
      "stateMutability": "view",
      "type": "function",
      "constant": true
    },
    {
      "inputs": [
        {
          "internalType": "address",
          "name": "itemAddress",
          "type": "address"
        }
      ],
      "name": "getItem",
      "outputs": [
        {
          "internalType": "string",
          "name": "",
          "type": "string"
        }
      ],
      "stateMutability": "view",
      "type": "function",
      "constant": true
    }
  ],
  "bytecode": "0x608060405234801561001057600080fd5b5060006100216100c460201b60201c565b9050806000806101000a81548173ffffffffffffffffffffffffffffffffffffffff021916908373ffffffffffffffffffffffffffffffffffffffff1602179055508073ffffffffffffffffffffffffffffffffffffffff16600073ffffffffffffffffffffffffffffffffffffffff167f8be0079c531659141344cd1fd0a4f28419497f9722a3daafe3b4186f6b6457e060405160405180910390a3506100cc565b600033905090565b612f0c80620000dc6000396000f3fe608060405260043610620000aa5760003560e01c80637a36b3ee116200006d5780637a36b3ee14620001af5780638c55174214620001f35780638da5cb5b14620002215780639de585c11462000251578063d321411c1462000271578063f2fde38b14620002b857620000aa565b80630d96c3a414620000af57806314d8c98114620000f357806314f5acf214620001375780636043f75b1462000165578063715018a61462000195575b600080fd5b348015620000bc57600080fd5b50620000db6004803603810190620000d5919062001d26565b620002e6565b604051620000ea919062002569565b60405180910390f35b3480156200010057600080fd5b506200011f600480360381019062000119919062001d26565b6200076d565b6040516200012e919062002569565b60405180910390f35b3480156200014457600080fd5b506200016360048036038101906200015d919062001d26565b62000849565b005b3480156200017257600080fd5b506200017d62000dfd565b6040516200018c9190620026c4565b60405180910390f35b348015620001a257600080fd5b50620001ad62000e07565b005b348015620001bc57600080fd5b50620001db6004803603810190620001d5919062001d93565b62000f48565b604051620001ea919062002569565b60405180910390f35b3480156200020057600080fd5b506200021f600480360381019062000219919062001e06565b62000f76565b005b3480156200022e57600080fd5b506200023962001320565b6040516200024891906200233d565b60405180910390f35b6200026f600480360381019062000269919062001d52565b62001349565b005b3480156200027e57600080fd5b506200029d600480360381019062000297919062001d26565b62001920565b604051620002af949392919062002515565b60405180910390f35b348015620002c557600080fd5b50620002e46004803603810190620002de919062001d26565b62001a0d565b005b60606000620003fd6040518060400160405280601181526020017f547261636b696e67207374617475733a20000000000000000000000000000000815250600160008673ffffffffffffffffffffffffffffffffffffffff1673ffffffffffffffffffffffffffffffffffffffff1681526020019081526020016000206001018054620003739062002880565b80601f0160208091040260200160405190810160405280929190818152602001828054620003a19062002880565b8015620003f25780601f10620003c657610100808354040283529160200191620003f2565b820191906000526020600020905b815481529060010190602001808311620003d457829003601f168201915b505050505062000f48565b9050600060028111156200043a577f4e487b7100000000000000000000000000000000000000000000000000000000600052602160045260246000fd5b600160008573ffffffffffffffffffffffffffffffffffffffff1673ffffffffffffffffffffffffffffffffffffffff16815260200190815260200160002060030160009054906101000a900460ff166002811115620004c3577f4e487b7100000000000000000000000000000000000000000000000000000000600052602160045260246000fd5b141562000513576200050b816040518060400160405280601181526020017f206973207374696c6c20756e736f6c642100000000000000000000000000000081525062000f48565b905062000764565b600160028111156200054e577f4e487b7100000000000000000000000000000000000000000000000000000000600052602160045260246000fd5b600160008573ffffffffffffffffffffffffffffffffffffffff1673ffffffffffffffffffffffffffffffffffffffff16815260200190815260200160002060030160009054906101000a900460ff166002811115620005d7577f4e487b7100000000000000000000000000000000000000000000000000000000600052602160045260246000fd5b141562000627576200061f816040518060400160405280602081526020017f20697320736f6c6420627574206e6f742079657420646973706174636865642181525062000f48565b905062000763565b60028081111562000661577f4e487b7100000000000000000000000000000000000000000000000000000000600052602160045260246000fd5b600160008573ffffffffffffffffffffffffffffffffffffffff1673ffffffffffffffffffffffffffffffffffffffff16815260200190815260200160002060030160009054906101000a900460ff166002811115620006ea577f4e487b7100000000000000000000000000000000000000000000000000000000600052602160045260246000fd5b14156200071e57620007168160405180606001604052806024815260200162002eb36024913962000f48565b905062000762565b6200075f816040518060400160405280601f81526020017f2068617320756e6b6e6f776e207374617475732c2041706f6c6f67696573210081525062000f48565b90505b5b5b80915050919050565b6060600160008373ffffffffffffffffffffffffffffffffffffffff1673ffffffffffffffffffffffffffffffffffffffff1681526020019081526020016000206001018054620007be9062002880565b80601f0160208091040260200160405190810160405280929190818152602001828054620007ec9062002880565b80156200083d5780601f1062000811576101008083540402835291602001916200083d565b820191906000526020600020905b8154815290600101906020018083116200081f57829003601f168201915b50505050509050919050565b6200085362001320565b73ffffffffffffffffffffffffffffffffffffffff166200087362001bc0565b73ffffffffffffffffffffffffffffffffffffffff1614620008d9577fbaa5df3ba2ffac2f5dbdfdb50e75a22b788c8cb19c21dfcbfa0e914287d15aac81620008bb62001bc0565b604051620008cb9291906200235a565b60405180910390a162000dfa565b6000600281111562000914577f4e487b7100000000000000000000000000000000000000000000000000000000600052602160045260246000fd5b600160008373ffffffffffffffffffffffffffffffffffffffff1673ffffffffffffffffffffffffffffffffffffffff16815260200190815260200160002060030160009054906101000a900460ff1660028111156200099d577f4e487b7100000000000000000000000000000000000000000000000000000000600052602160045260246000fd5b1415620009ee577fbaa5df3ba2ffac2f5dbdfdb50e75a22b788c8cb19c21dfcbfa0e914287d15aac81620009d062001bc0565b604051620009e09291906200239c565b60405180910390a162000df9565b60028081111562000a28577f4e487b7100000000000000000000000000000000000000000000000000000000600052602160045260246000fd5b600160008373ffffffffffffffffffffffffffffffffffffffff1673ffffffffffffffffffffffffffffffffffffffff16815260200190815260200160002060030160009054906101000a900460ff16600281111562000ab1577f4e487b7100000000000000000000000000000000000000000000000000000000600052602160045260246000fd5b141562000b02577fbaa5df3ba2ffac2f5dbdfdb50e75a22b788c8cb19c21dfcbfa0e914287d15aac8162000ae462001bc0565b60405162000af4929190620023de565b60405180910390a162000df8565b6002600160008373ffffffffffffffffffffffffffffffffffffffff1673ffffffffffffffffffffffffffffffffffffffff16815260200190815260200160002060030160006101000a81548160ff0219169083600281111562000b8f577f4e487b7100000000000000000000000000000000000000000000000000000000600052602160045260246000fd5b0217905550600062000ca96040518060400160405280601281526020017f446973706174636820737563636573733a200000000000000000000000000000815250600160008573ffffffffffffffffffffffffffffffffffffffff1673ffffffffffffffffffffffffffffffffffffffff168152602001908152602001600020600101805462000c1f9062002880565b80601f016020809104026020016040519081016040528092919081815260200182805462000c4d9062002880565b801562000c9e5780601f1062000c725761010080835404028352916020019162000c9e565b820191906000526020600020905b81548152906001019060200180831162000c8057829003601f168201915b505050505062000f48565b905062000cec816040518060400160405280601581526020017f206973206f757420666f722064656c697665727921000000000000000000000081525062000f48565b90507f7f449ef3ffd8c2662908e012f2969236975c58744b40ab5a0544b43e1454dfba600160008473ffffffffffffffffffffffffffffffffffffffff1673ffffffffffffffffffffffffffffffffffffffff168152602001908152602001600020600101600160008573ffffffffffffffffffffffffffffffffffffffff1673ffffffffffffffffffffffffffffffffffffffff16815260200190815260200160002060030160009054906101000a900460ff16600281111562000dda577f4e487b7100000000000000000000000000000000000000000000000000000000600052602160045260246000fd5b848460405162000dee94939291906200258d565b60405180910390a1505b5b5b50565b6000600254905090565b62000e1162001bc0565b73ffffffffffffffffffffffffffffffffffffffff1662000e3162001320565b73ffffffffffffffffffffffffffffffffffffffff161462000e8a576040517f08c379a000000000000000000000000000000000000000000000000000000000815260040162000e819062002680565b60405180910390fd5b600073ffffffffffffffffffffffffffffffffffffffff1660008054906101000a900473ffffffffffffffffffffffffffffffffffffffff1673ffffffffffffffffffffffffffffffffffffffff167f8be0079c531659141344cd1fd0a4f28419497f9722a3daafe3b4186f6b6457e060405160405180910390a360008060006101000a81548173ffffffffffffffffffffffffffffffffffffffff021916908373ffffffffffffffffffffffffffffffffffffffff160217905550565b6060828260405160200162000f5f92919062002315565b604051602081830303815290604052905092915050565b62000f8062001320565b73ffffffffffffffffffffffffffffffffffffffff1662000fa062001bc0565b73ffffffffffffffffffffffffffffffffffffffff161462001004577f7bfbd8d5eb9e55fa286068ab04019f44bc8b5e4edb0c2a08401be2c5cdcc5df662000fe762001bc0565b60405162000ff6919062002420565b60405180910390a16200131c565b6000308383604051620010179062001bc8565b6200102593929190620024d1565b604051809103906000f08015801562001042573d6000803e3d6000fd5b50905080600160008373ffffffffffffffffffffffffffffffffffffffff1673ffffffffffffffffffffffffffffffffffffffff16815260200190815260200160002060000160006101000a81548173ffffffffffffffffffffffffffffffffffffffff021916908373ffffffffffffffffffffffffffffffffffffffff16021790555082600160008373ffffffffffffffffffffffffffffffffffffffff1673ffffffffffffffffffffffffffffffffffffffff16815260200190815260200160002060010190805190602001906200111e92919062001bd6565b5081600160008373ffffffffffffffffffffffffffffffffffffffff1673ffffffffffffffffffffffffffffffffffffffff168152602001908152602001600020600201819055506000600160008373ffffffffffffffffffffffffffffffffffffffff1673ffffffffffffffffffffffffffffffffffffffff16815260200190815260200160002060030160006101000a81548160ff02191690836002811115620011f3577f4e487b7100000000000000000000000000000000000000000000000000000000600052602160045260246000fd5b02179055507fedbdfcf8cc592435bc8ca23428200230da576a019193008c9f3896f03e7bd759600160008373ffffffffffffffffffffffffffffffffffffffff1673ffffffffffffffffffffffffffffffffffffffff168152602001908152602001600020600101600160008473ffffffffffffffffffffffffffffffffffffffff1673ffffffffffffffffffffffffffffffffffffffff16815260200190815260200160002060030160009054906101000a900460ff166002811115620012e4577f4e487b7100000000000000000000000000000000000000000000000000000000600052602160045260246000fd5b8385604051620012f89493929190620025e8565b60405180910390a1600260008154809291906200131590620028b6565b9190505550505b5050565b60008060009054906101000a900473ffffffffffffffffffffffffffffffffffffffff16905090565b6000600190507fabf49c168776b4b3d5536999c29e18ef0d7ec2ab8c5f59e3fb05a9c3745dd46d83600160008673ffffffffffffffffffffffffffffffffffffffff1673ffffffffffffffffffffffffffffffffffffffff16815260200190815260200160002060020154600160008773ffffffffffffffffffffffffffffffffffffffff1673ffffffffffffffffffffffffffffffffffffffff16815260200190815260200160002060030160009054906101000a900460ff1660028111156200143d577f4e487b7100000000000000000000000000000000000000000000000000000000600052602160045260246000fd5b3460405162001450949392919062002484565b60405180910390a16200146262001320565b73ffffffffffffffffffffffffffffffffffffffff166200148262001bc0565b73ffffffffffffffffffffffffffffffffffffffff161415620014eb577f7bfbd8d5eb9e55fa286068ab04019f44bc8b5e4edb0c2a08401be2c5cdcc5df6620014ca62001bc0565b604051620014d9919062002452565b60405180910390a16000905062001678565b81600160008573ffffffffffffffffffffffffffffffffffffffff1673ffffffffffffffffffffffffffffffffffffffff16815260200190815260200160002060020154146200157157600090507fefd0c5be3b31d9a011b17428735a9cce5054ae1318464339009565b2f722001060405162001568906200265e565b60405180910390a15b60006002811115620015ac577f4e487b7100000000000000000000000000000000000000000000000000000000600052602160045260246000fd5b600160008573ffffffffffffffffffffffffffffffffffffffff1673ffffffffffffffffffffffffffffffffffffffff16815260200190815260200160002060030160009054906101000a900460ff16600281111562001635577f4e487b7100000000000000000000000000000000000000000000000000000000600052602160045260246000fd5b146200167757600090507fefd0c5be3b31d9a011b17428735a9cce5054ae1318464339009565b2f72200106040516200166e90620026a2565b60405180910390a15b5b8015620018c25760018060008573ffffffffffffffffffffffffffffffffffffffff1673ffffffffffffffffffffffffffffffffffffffff16815260200190815260200160002060030160006101000a81548160ff021916908360028111156200170b577f4e487b7100000000000000000000000000000000000000000000000000000000600052602160045260246000fd5b02179055507fedbdfcf8cc592435bc8ca23428200230da576a019193008c9f3896f03e7bd759600160008573ffffffffffffffffffffffffffffffffffffffff1673ffffffffffffffffffffffffffffffffffffffff168152602001908152602001600020600101600160008673ffffffffffffffffffffffffffffffffffffffff1673ffffffffffffffffffffffffffffffffffffffff16815260200190815260200160002060030160009054906101000a900460ff166002811115620017fc577f4e487b7100000000000000000000000000000000000000000000000000000000600052602160045260246000fd5b600160008773ffffffffffffffffffffffffffffffffffffffff1673ffffffffffffffffffffffffffffffffffffffff16815260200190815260200160002060000160009054906101000a900473ffffffffffffffffffffffffffffffffffffffff16600160008873ffffffffffffffffffffffffffffffffffffffff1673ffffffffffffffffffffffffffffffffffffffff16815260200190815260200160002060020154604051620018b49493929190620025e8565b60405180910390a16200191a565b620018cc62001bc0565b73ffffffffffffffffffffffffffffffffffffffff166108fc349081150290604051600060405180830381858888f1935050505015801562001912573d6000803e3d6000fd5b50506200191c565b505b5050565b60016020528060005260406000206000915090508060000160009054906101000a900473ffffffffffffffffffffffffffffffffffffffff16908060010180546200196b9062002880565b80601f0160208091040260200160405190810160405280929190818152602001828054620019999062002880565b8015620019ea5780601f10620019be57610100808354040283529160200191620019ea565b820191906000526020600020905b815481529060010190602001808311620019cc57829003601f168201915b5050505050908060020154908060030160009054906101000a900460ff16905084565b62001a1762001bc0565b73ffffffffffffffffffffffffffffffffffffffff1662001a3762001320565b73ffffffffffffffffffffffffffffffffffffffff161462001a90576040517f08c379a000000000000000000000000000000000000000000000000000000000815260040162001a879062002680565b60405180910390fd5b600073ffffffffffffffffffffffffffffffffffffffff168173ffffffffffffffffffffffffffffffffffffffff16141562001b03576040517f08c379a000000000000000000000000000000000000000000000000000000000815260040162001afa906200263c565b60405180910390fd5b8073ffffffffffffffffffffffffffffffffffffffff1660008054906101000a900473ffffffffffffffffffffffffffffffffffffffff1673ffffffffffffffffffffffffffffffffffffffff167f8be0079c531659141344cd1fd0a4f28419497f9722a3daafe3b4186f6b6457e060405160405180910390a3806000806101000a81548173ffffffffffffffffffffffffffffffffffffffff021916908373ffffffffffffffffffffffffffffffffffffffff16021790555050565b600033905090565b6104968062002a1d83390190565b82805462001be49062002880565b90600052602060002090601f01602090048101928262001c08576000855562001c54565b82601f1062001c2357805160ff191683800117855562001c54565b8280016001018555821562001c54579182015b8281111562001c5357825182559160200191906001019062001c36565b5b50905062001c63919062001c67565b5090565b5b8082111562001c8257600081600090555060010162001c68565b5090565b600062001c9d62001c978462002715565b620026e1565b90508281526020810184848401111562001cb657600080fd5b62001cc38482856200283b565b509392505050565b60008135905062001cdc81620029e8565b92915050565b600082601f83011262001cf457600080fd5b813562001d0684826020860162001c86565b91505092915050565b60008135905062001d208162002a02565b92915050565b60006020828403121562001d3957600080fd5b600062001d498482850162001ccb565b91505092915050565b6000806040838503121562001d6657600080fd5b600062001d768582860162001ccb565b925050602062001d898582860162001d0f565b9150509250929050565b6000806040838503121562001da757600080fd5b600083013567ffffffffffffffff81111562001dc257600080fd5b62001dd08582860162001ce2565b925050602083013567ffffffffffffffff81111562001dee57600080fd5b62001dfc8582860162001ce2565b9150509250929050565b6000806040838503121562001e1a57600080fd5b600083013567ffffffffffffffff81111562001e3557600080fd5b62001e438582860162001ce2565b925050602062001e568582860162001d0f565b9150509250929050565b62001e6b8162002784565b82525050565b62001e7c81620027d7565b82525050565b62001e8d81620027ff565b82525050565b62001e9e8162002827565b82525050565b600062001eb1826200275d565b62001ebd818562002768565b935062001ecf8185602086016200284a565b62001eda81620029c0565b840191505092915050565b600062001ef2826200275d565b62001efe818562002779565b935062001f108185602086016200284a565b80840191505092915050565b6000815462001f2b8162002880565b62001f37818662002768565b9450600182166000811462001f55576001811462001f685762001f9f565b60ff198316865260208601935062001f9f565b62001f738562002748565b60005b8381101562001f975781548189015260018201915060208101905062001f76565b808801955050505b50505092915050565b600062001fb760268362002768565b91507f4f776e61626c653a206e6577206f776e657220697320746865207a65726f206160008301527f64647265737300000000000000000000000000000000000000000000000000006020830152604082019050919050565b60006200201f601b8362002768565b91507f4f6e6c792066756c6c207061796d656e747320616363657074656400000000006000830152602082019050919050565b60006200206160408362002768565b91507f4469737061746368206661696c7572653a204f6e6c7920636f6e74726163742060008301527f6f776e65722063616e20696e697469617465207468652064656c6976657279216020830152604082019050919050565b6000620020c960348362002768565b91507f56616c69646174696f6e206661696c7572653a2043616c6c6572206973206e6f60008301527f742074686520636f6e7472616374206f776e65720000000000000000000000006020830152604082019050919050565b60006200213160338362002768565b91507f56616c69646174696f6e206661696c7572653a20596f752063616e277420627560008301527f7920796f7572206f776e2070726f6475637421000000000000000000000000006020830152604082019050919050565b60006200219960208362002768565b91507f4f776e61626c653a2063616c6c6572206973206e6f7420746865206f776e65726000830152602082019050919050565b6000620021db60388362002768565b91507f4974656d20697320616c726561647920736f6c642c206675727468657220696e60008301527f2074686520636861696e20666f722064697370617463682100000000000000006020830152604082019050919050565b600062002243602a8362002768565b91507f4469737061746368206661696c7572653a204974656d206e6f742066756c6c7960008301527f20706169642079657421000000000000000000000000000000000000000000006020830152604082019050919050565b6000620022ab602d8362002768565b91507f4469737061746368206661696c7572653a204974656d20697320616c7265616460008301527f79206469737061746368656421000000000000000000000000000000000000006020830152604082019050919050565b6200230f81620027cd565b82525050565b600062002323828562001ee5565b915062002331828462001ee5565b91508190509392505050565b600060208201905062002354600083018462001e60565b92915050565b600060608201905062002371600083018562001e60565b62002380602083018462001e60565b8181036040830152620023938162002052565b90509392505050565b6000606082019050620023b3600083018562001e60565b620023c2602083018462001e60565b8181036040830152620023d58162002234565b90509392505050565b6000606082019050620023f5600083018562001e60565b62002404602083018462001e60565b818103604083015262002417816200229c565b90509392505050565b600060408201905062002437600083018462001e60565b81810360208301526200244a81620020ba565b905092915050565b600060408201905062002469600083018462001e60565b81810360208301526200247c8162002122565b905092915050565b60006080820190506200249b600083018762001e60565b620024aa602083018662002304565b620024b9604083018562002304565b620024c8606083018462002304565b95945050505050565b6000606082019050620024e8600083018662001e71565b8181036020830152620024fc818562001ea4565b90506200250d604083018462002304565b949350505050565b60006080820190506200252c600083018762001e82565b818103602083015262002540818662001ea4565b905062002551604083018562002304565b62002560606083018462001e93565b95945050505050565b6000602082019050818103600083015262002585818462001ea4565b905092915050565b60006080820190508181036000830152620025a9818762001f1c565b9050620025ba602083018662002304565b620025c9604083018562001e60565b8181036060830152620025dd818462001ea4565b905095945050505050565b6000608082019050818103600083015262002604818762001f1c565b905062002615602083018662002304565b62002624604083018562001e60565b62002633606083018462002304565b95945050505050565b60006020820190508181036000830152620026578162001fa8565b9050919050565b60006020820190508181036000830152620026798162002010565b9050919050565b600060208201905081810360008301526200269b816200218a565b9050919050565b60006020820190508181036000830152620026bd81620021cc565b9050919050565b6000602082019050620026db600083018462002304565b92915050565b6000604051905081810181811067ffffffffffffffff821117156200270b576200270a62002991565b5b8060405250919050565b600067ffffffffffffffff82111562002733576200273262002991565b5b601f19601f8301169050602081019050919050565b60008190508160005260206000209050919050565b600081519050919050565b600082825260208201905092915050565b600081905092915050565b60006200279182620027ad565b9050919050565b6000819050620027a882620029d1565b919050565b600073ffffffffffffffffffffffffffffffffffffffff82169050919050565b6000819050919050565b6000620027e482620027eb565b9050919050565b6000620027f882620027ad565b9050919050565b60006200280c8262002813565b9050919050565b60006200282082620027ad565b9050919050565b6000620028348262002798565b9050919050565b82818337600083830152505050565b60005b838110156200286a5780820151818401526020810190506200284d565b838111156200287a576000848401525b50505050565b600060028204905060018216806200289957607f821691505b60208210811415620028b057620028af62002962565b5b50919050565b6000620028c382620027cd565b91507fffffffffffffffffffffffffffffffffffffffffffffffffffffffffffffffff821415620028f957620028f862002904565b5b600182019050919050565b7f4e487b7100000000000000000000000000000000000000000000000000000000600052601160045260246000fd5b7f4e487b7100000000000000000000000000000000000000000000000000000000600052602160045260246000fd5b7f4e487b7100000000000000000000000000000000000000000000000000000000600052602260045260246000fd5b7f4e487b7100000000000000000000000000000000000000000000000000000000600052604160045260246000fd5b6000601f19601f8301169050919050565b60038110620029e557620029e462002933565b5b50565b620029f38162002784565b8114620029ff57600080fd5b50565b62002a0d81620027cd565b811462002a1957600080fd5b5056fe608060405234801561001057600080fd5b50604051610496380380610496833981810160405281019061003291906101ce565b8160009080519060200190610048929190610099565b508060018190555082600260006101000a81548173ffffffffffffffffffffffffffffffffffffffff021916908373ffffffffffffffffffffffffffffffffffffffff1602179055505050506103d5565b8280546100a590610317565b90600052602060002090601f0160209004810192826100c7576000855561010e565b82601f106100e057805160ff191683800117855561010e565b8280016001018555821561010e579182015b8281111561010d5782518255916020019190600101906100f2565b5b50905061011b919061011f565b5090565b5b80821115610138576000816000905550600101610120565b5090565b600061014f61014a84610266565b610235565b90508281526020810184848401111561016757600080fd5b6101728482856102e4565b509392505050565b600081519050610189816103a7565b92915050565b600082601f8301126101a057600080fd5b81516101b084826020860161013c565b91505092915050565b6000815190506101c8816103be565b92915050565b6000806000606084860312156101e357600080fd5b60006101f18682870161017a565b935050602084015167ffffffffffffffff81111561020e57600080fd5b61021a8682870161018f565b925050604061022b868287016101b9565b9150509250925092565b6000604051905081810181811067ffffffffffffffff8211171561025c5761025b610378565b5b8060405250919050565b600067ffffffffffffffff82111561028157610280610378565b5b601f19601f8301169050602081019050919050565b60006102a1826102ba565b9050919050565b60006102b382610296565b9050919050565b600073ffffffffffffffffffffffffffffffffffffffff82169050919050565b6000819050919050565b60005b838110156103025780820151818401526020810190506102e7565b83811115610311576000848401525b50505050565b6000600282049050600182168061032f57607f821691505b6020821081141561034357610342610349565b5b50919050565b7f4e487b7100000000000000000000000000000000000000000000000000000000600052602260045260246000fd5b7f4e487b7100000000000000000000000000000000000000000000000000000000600052604160045260246000fd5b6103b0816102a8565b81146103bb57600080fd5b50565b6103c7816102da565b81146103d257600080fd5b50565b60b3806103e36000396000f3fe6080604052348015600f57600080fd5b506004361060285760003560e01c80633c8da58814602d575b600080fd5b60336047565b604051603e9190605a565b60405180910390f35b60015481565b6054816073565b82525050565b6000602082019050606d6000830184604d565b92915050565b600081905091905056fea2646970667358221220108dc139666f2627f96ddb90791e056c9935a8c7d61f9527ac28e13c1287aedd64736f6c63430008000033206973206469737061746368656420616e64206f757420666f722064656c697665727921a2646970667358221220b9391d9e9de123e231e2c16f3379511bf4e3ac2af17cdd89ee6f2192f5eae05364736f6c63430008000033",
  "immutableReferences": {},
  "source": "// SPDX-License-Identifier: GPL-3.0\n\npragma solidity ^0.8.0;\n\nimport \"@openzeppelin/contracts/access/Ownable.sol\";\nimport \"./Item.sol\";\n\n// Smart contract responsible for \n// 1. Item creation in the store\n// 2. Buying an item from the store\n// 3. Payment handling\n// 4. Payment refunds\n// 4. Dispatching \n// 5. Tracking\n// This uses openzepplin's Ownable contract to provide the access and ownership managemnt\n\ncontract ItemManager is Ownable {\n\n    enum SupplyChainState {Created, Paid, Delivered}\n\n    // Struct to keep track of different steps in supply-chian\n    struct S_Item {\n        Item _item;\n        string _identifier;\n        uint _itemPrice;\n        ItemManager.SupplyChainState _state;\n    }\n\n    // map to keep items {itemAddres => Item}\n    mapping(address => S_Item) public items;\n\n    uint itemIndex;\n\n    // different events definitions used across application\n    \n    event MyLog(address _itemAddress, uint _itemPrice, uint _state, uint _payment);\n\n    event SupplyChainStep(string _identifier, uint _step, address _itemAddress, uint _itemPrice);\n\n    event ValidationMessage(string _message);\n\n    event NotOwnerEvent(address _caller, string _message);\n\n    event DispatchEvent(string _identifier, uint _state, address _itemAddress, string _message);\n\n    event InvalidDispatcher(address _itemAddress, address _msgSender, string _message);\n\n    event TrackingEvent(string _identifier, uint _state, address _itemAddress, string _message);\n\n    /** function to create a new Item in system.\n    \n    only owner of the contract is allowed to add new stock currently, however this can functionality can be extended further in future\n    to allow other clients to add their own stuff for lets say selling/exchanging own products. Specific, Admin like users can also be allowed\n    to handle the creation of items in future here. \n    \n    _note Currently, deployer accountn of the contract will become the owner and hence thta account only will be allowed to add new items.\n    \n    this function uses openzepplin ownable contract to validate the ownership.\n    \n    It uses another Item.sol contract which represent an Item object in the system. \n\n    state of the newly created items would be set as \"Created\" initially on blockchain \n    and down the supply chain it will be modified as item moves to reflet the current stage.\n\n    */\n    function createItem(string memory _identifier, uint _itemPrice) public {\n        if (_msgSender() != owner()) {\n            emit NotOwnerEvent(_msgSender(), \"Validation failure: Caller is not the contract owner\");\n            //require(_msgSender() == owner(), \">>> Not the owner\");\n        } else {\n            Item item = new Item(this, _identifier, _itemPrice);\n\n            //emit log(_identifier, _itemPrice, address(item), address(this));\n\n            items[address(item)]._item = item;\n            items[address(item)]._identifier = _identifier;\n            items[address(item)]._itemPrice = _itemPrice;\n            items[address(item)]._state = SupplyChainState.Created;\n\n            emit SupplyChainStep(items[address(item)]._identifier, uint(items[address(item)]._state), address(item), _itemPrice);\n\n            itemIndex++;\n        }\n    }\n\n\n    /** function is used to trigger the payment for an item.\n    \n    when user clicks on the buy button on UI this method gets invoked on smart contract which is a payable function and accepts\n    the payment. \n\n    it validted and allow transations only if the sender is not the owner of the item, You cannot buy your own stuff. Account used to create the items\n    cannot be used to buy the items. Again, ownership is checked.\n\n    it also validated the sent amount is equal to the total item value. This functionality can also be extended in future to allow to buy the items \n    on installments or maybe friction of item. currently only full price needs to be paid to buy an item.\n\n    this function also make sure to refund the amount to the caller account in case there was any validation failure while making the buy request.\n    \n    _note: transaction will be treated as a successful transaction and gas fee will be paid, even if there was any validation failure for example user tried to\n    buy an item which was already sold. Because for metamask percpective it was a legitimate attempt to invoke the blockchain function. However, our application \n    make sure to refund the _msg.value (price) back to the user wallet.\n    \n    In future, we can extend this functionality via UI interface to not allow such transactions by reading the \n    current state of item on blockchain. \n    \n    */\n    function triggerPayment(address _itemAddress, uint _itemPrice) public payable {\n\n        bool isValid = true;\n\n        emit MyLog(_itemAddress, uint(items[_itemAddress]._itemPrice), uint(items[_itemAddress]._state), msg.value);\n\n        if (_msgSender() == owner()) {\n\n            emit NotOwnerEvent(_msgSender(), \"Validation failure: You can't buy your own product!\");\n            isValid = false;\n        } else {\n\n            if(items[_itemAddress]._itemPrice != _itemPrice) {\n                isValid = false;\n                emit ValidationMessage(\"Only full payments accepted\");\n            }\n            \n            if(items[_itemAddress]._state != SupplyChainState.Created) {\n                isValid = false;\n                emit ValidationMessage(\"Item is already sold, further in the chain for dispatch!\");\n            }\n        \n        }\n\n        if(isValid) {\n            items[_itemAddress]._state = SupplyChainState.Paid;\n            emit SupplyChainStep(items[_itemAddress]._identifier, uint(items[_itemAddress]._state), address(items[_itemAddress]._item), items[_itemAddress]._itemPrice);\n        } else {\n            // Refund the transaction value (in wei) to the caller\n            payable(_msgSender()).transfer(msg.value);\n            return;\n        }\n\n    }\n\n    /** function to handle the delivery of the item.\n    \n    function gets invoked when user (owner) clicks on the dispatch button on UI. This validates the current state of the item which \n    must be fully \"Paid\" before it can be marked as dispatch. \n\n    Creater of the item is only allowed to dispatch the item, this is validated through the ownership checks. Buyer account cannot initittae the dispatch of item.\n    In future, we can extend it to allow other users too, let's say \"Admin\" users of delivery departments which have rights to check and dispatch the items.\n    currently it is restricted to the creator account of item only.\n    \n    This function moves the item further on supply chain by changing its state to \"Delivered\" post successful validations.\n\n     */\n    function triggerDelivery(address _itemAddress) public {\n        //require(items[_itemIndex]._state == SupplyChainState.Paid, \"Item need to be fully paid before delivery\");\n        \n        if (_msgSender() != owner()) {\n            emit InvalidDispatcher(_itemAddress, _msgSender(), \"Dispatch failure: Only contract owner can initiate the delivery!\");\n        } else {\n            if(items[_itemAddress]._state == SupplyChainState.Created) {\n                emit InvalidDispatcher(_itemAddress, _msgSender(), \"Dispatch failure: Item not fully paid yet!\");\n            } else if(items[_itemAddress]._state == SupplyChainState.Delivered) {\n                emit InvalidDispatcher(_itemAddress, _msgSender(), \"Dispatch failure: Item is already dispatched!\");\n            } else {\n                items[_itemAddress]._state = SupplyChainState.Delivered;\n                string memory customMsg = concatenateStrings(\"Dispatch success: \", items[_itemAddress]._identifier);\n                customMsg = concatenateStrings(customMsg, \" is out for delivery!\");\n                emit DispatchEvent(items[_itemAddress]._identifier, uint(items[_itemAddress]._state), _itemAddress, customMsg);\n            }\n        }\n    }\n\n    /** function to track the status of an Item.\n\n        it is a view function which just reads the blockchain state, just read-only. No transaction involved\n        checks the item state and revert the messgae to caller accordingly.\n        \n        tracking is not restricted as anyone can look inot the status of an item.\n        In future we maywant to restrict it to the buyer and seller of the item only. \n     */\n    function trackItem(address _itemAddress) public view returns (string memory) {\n\n        //emit MyLog(_itemAddress, items[_itemAddress]._itemPrice, uint(items[_itemAddress]._state), 1000);\n\n        string memory customMsg = concatenateStrings(\"Tracking status: \", items[_itemAddress]._identifier);\n        if(items[_itemAddress]._state == SupplyChainState.Created) {\n            customMsg = concatenateStrings(customMsg, \" is still unsold!\");\n        } else if(items[_itemAddress]._state == SupplyChainState.Paid) {\n            customMsg = concatenateStrings(customMsg, \" is sold but not yet dispatched!\");\n        } else if(items[_itemAddress]._state == SupplyChainState.Delivered) {\n            customMsg = concatenateStrings(customMsg, \" is dispatched and out for delivery!\");\n        } else {\n            customMsg = concatenateStrings(customMsg, \" has unknown status, Apologies!\");\n        }\n        \n        return customMsg;\n   \n    }\n\n    /** Utility method to concatanate strings, used to prepare custom user friendly msgs.\n        Pure method nothing to do with blockchain\n     */\n    function concatenateStrings (string memory str1, string memory str2) public pure returns (string memory) {\n        return string(abi.encodePacked(str1, str2));\n    }\n\n    /** function to retrieve total number of items present on blockchain.\n        It is a view function which reads the current state of blockchain, that can be used on UI to determone total items.\n\n        In future, we will extend this method functionality to read more item specific information for example Item.state, to provide richer\n        information on tje UI to user. \n     */\n    function getTotalItemCount() public view returns (uint) {\n        return itemIndex;\n    }\n\n\n    /** function to read individual item from the blockchain. Currently just returning name of the item.\n        Later, will be used to return the complete item object with its all attributes.\n     */\n    function getItem(address itemAddress) public view returns (string memory) {\n        return items[itemAddress]._identifier;\n    }\n\n}",
  "sourcePath": "/Users/vinit/Dcu-workspace/eth/codebase/project/supply-chain-demo/contracts/ItemManager.sol",
  "compiler": {
    "name": "solc",
    "version": "0.8.0+commit.c7dfd78e.Emscripten.clang"
  },
  "schemaVersion": "3.4.16",
  "updatedAt": "2024-03-03T09:10:28.381Z",
  "networkType": "ethereum",
  "devdoc": {
    "kind": "dev",
    "methods": {
      "owner()": {
        "details": "Returns the address of the current owner."
      },
      "renounceOwnership()": {
        "details": "Leaves the contract without owner. It will not be possible to call `onlyOwner` functions anymore. Can only be called by the current owner. NOTE: Renouncing ownership will leave the contract without an owner, thereby removing any functionality that is only available to the owner."
      },
      "transferOwnership(address)": {
        "details": "Transfers ownership of the contract to a new account (`newOwner`). Can only be called by the current owner."
      }
    },
    "version": 1
  },
  "userdoc": {
    "kind": "user",
    "methods": {
      "concatenateStrings(string,string)": {
        "notice": "Utility method to concatanate strings, used to prepare custom user friendly msgs. Pure method nothing to do with blockchain"
      },
      "createItem(string,uint256)": {
        "notice": "function to create a new Item in system. only owner of the contract is allowed to add new stock currently, however this can functionality can be extended further in future to allow other clients to add their own stuff for lets say selling/exchanging own products. Specific, Admin like users can also be allowed to handle the creation of items in future here.  _note Currently, deployer accountn of the contract will become the owner and hence thta account only will be allowed to add new items. this function uses openzepplin ownable contract to validate the ownership. It uses another Item.sol contract which represent an Item object in the system.  state of the newly created items would be set as \"Created\" initially on blockchain  and down the supply chain it will be modified as item moves to reflet the current stage."
      },
      "getItem(address)": {
        "notice": "function to read individual item from the blockchain. Currently just returning name of the item. Later, will be used to return the complete item object with its all attributes."
      },
      "getTotalItemCount()": {
        "notice": "function to retrieve total number of items present on blockchain. It is a view function which reads the current state of blockchain, that can be used on UI to determone total items. In future, we will extend this method functionality to read more item specific information for example Item.state, to provide richer information on tje UI to user. "
      },
      "trackItem(address)": {
        "notice": "function to track the status of an Item. it is a view function which just reads the blockchain state, just read-only. No transaction involved checks the item state and revert the messgae to caller accordingly. tracking is not restricted as anyone can look inot the status of an item. In future we maywant to restrict it to the buyer and seller of the item only. "
      },
      "triggerDelivery(address)": {
        "notice": "function to handle the delivery of the item. function gets invoked when user (owner) clicks on the dispatch button on UI. This validates the current state of the item which  must be fully \"Paid\" before it can be marked as dispatch.  Creater of the item is only allowed to dispatch the item, this is validated through the ownership checks. Buyer account cannot initittae the dispatch of item. In future, we can extend it to allow other users too, let's say \"Admin\" users of delivery departments which have rights to check and dispatch the items. currently it is restricted to the creator account of item only. This function moves the item further on supply chain by changing its state to \"Delivered\" post successful validations."
      },
      "triggerPayment(address,uint256)": {
        "notice": "function is used to trigger the payment for an item. when user clicks on the buy button on UI this method gets invoked on smart contract which is a payable function and accepts the payment.  it validted and allow transations only if the sender is not the owner of the item, You cannot buy your own stuff. Account used to create the items cannot be used to buy the items. Again, ownership is checked. it also validated the sent amount is equal to the total item value. This functionality can also be extended in future to allow to buy the items  on installments or maybe friction of item. currently only full price needs to be paid to buy an item. this function also make sure to refund the amount to the caller account in case there was any validation failure while making the buy request. _note: transaction will be treated as a successful transaction and gas fee will be paid, even if there was any validation failure for example user tried to buy an item which was already sold. Because for metamask percpective it was a legitimate attempt to invoke the blockchain function. However, our application  make sure to refund the _msg.value (price) back to the user wallet. In future, we can extend this functionality via UI interface to not allow such transactions by reading the  current state of item on blockchain. "
      }
    },
    "version": 1
  }
}