{
  "contractName": "Item",
  "abi": [
    {
      "inputs": [
        {
          "internalType": "contract ItemManager",
          "name": "_parentContract",
          "type": "address"
        },
        {
          "internalType": "string",
          "name": "_identifier",
          "type": "string"
        },
        {
          "internalType": "uint256",
          "name": "_priceInWei",
          "type": "uint256"
        }
      ],
      "stateMutability": "nonpayable",
      "type": "constructor"
    },
    {
      "inputs": [],
      "name": "priceInWei",
      "outputs": [
        {
          "internalType": "uint256",
          "name": "",
          "type": "uint256"
        }
      ],
      "stateMutability": "view",
      "type": "function"
    }
  ],
  "bytecode": "0x608060405234801561001057600080fd5b50604051610496380380610496833981810160405281019061003291906101ce565b8160009080519060200190610048929190610099565b508060018190555082600260006101000a81548173ffffffffffffffffffffffffffffffffffffffff021916908373ffffffffffffffffffffffffffffffffffffffff1602179055505050506103d5565b8280546100a590610317565b90600052602060002090601f0160209004810192826100c7576000855561010e565b82601f106100e057805160ff191683800117855561010e565b8280016001018555821561010e579182015b8281111561010d5782518255916020019190600101906100f2565b5b50905061011b919061011f565b5090565b5b80821115610138576000816000905550600101610120565b5090565b600061014f61014a84610266565b610235565b90508281526020810184848401111561016757600080fd5b6101728482856102e4565b509392505050565b600081519050610189816103a7565b92915050565b600082601f8301126101a057600080fd5b81516101b084826020860161013c565b91505092915050565b6000815190506101c8816103be565b92915050565b6000806000606084860312156101e357600080fd5b60006101f18682870161017a565b935050602084015167ffffffffffffffff81111561020e57600080fd5b61021a8682870161018f565b925050604061022b868287016101b9565b9150509250925092565b6000604051905081810181811067ffffffffffffffff8211171561025c5761025b610378565b5b8060405250919050565b600067ffffffffffffffff82111561028157610280610378565b5b601f19601f8301169050602081019050919050565b60006102a1826102ba565b9050919050565b60006102b382610296565b9050919050565b600073ffffffffffffffffffffffffffffffffffffffff82169050919050565b6000819050919050565b60005b838110156103025780820151818401526020810190506102e7565b83811115610311576000848401525b50505050565b6000600282049050600182168061032f57607f821691505b6020821081141561034357610342610349565b5b50919050565b7f4e487b7100000000000000000000000000000000000000000000000000000000600052602260045260246000fd5b7f4e487b7100000000000000000000000000000000000000000000000000000000600052604160045260246000fd5b6103b0816102a8565b81146103bb57600080fd5b50565b6103c7816102da565b81146103d257600080fd5b50565b60b3806103e36000396000f3fe6080604052348015600f57600080fd5b506004361060285760003560e01c80633c8da58814602d575b600080fd5b60336047565b604051603e9190605a565b60405180910390f35b60015481565b6054816073565b82525050565b6000602082019050606d6000830184604d565b92915050565b600081905091905056fea2646970667358221220ce244f7607c0e337bce090827e1b7eaa13977702e7cfce18bd81286b3782f37664736f6c63430008000033",
  "immutableReferences": {},
  "source": "// SPDX-License-Identifier: GPL-3.0\n\npragma solidity ^0.8.0;\n\nimport \"./ItemManager.sol\";\n\ncontract Item {\n\n    string identifier;\n    uint public priceInWei;\n    ItemManager parentContract;\n    \n    constructor (ItemManager _parentContract, string memory _identifier, uint _priceInWei) {\n        identifier = _identifier;\n        priceInWei = _priceInWei;\n        parentContract = _parentContract;\n    }\n\n    // receive() external payable {\n    //     require(pricePaid == 0, \"Price of item is already paid\");\n    //     require(priceInWei == msg.value, \"Only full payments allowed, no partial payment\");\n    //     pricePaid += msg.value;\n    //     (bool success, ) = address(parentContract).call{value:msg.value}(abi.encodeWithSignature(\"triggerPayment(address)\", this.address));\n    //     require(success, \"The transaction wsn't successful, canceling\");\n    // }\n\n    // fallback() external {}\n}",
  "sourcePath": "/Users/vinit/Dcu-workspace/eth/codebase/project/supply-chain-demo/contracts/Item.sol",
  "compiler": {
    "name": "solc",
    "version": "0.8.0+commit.c7dfd78e.Emscripten.clang"
  },
  "schemaVersion": "3.4.16",
  "updatedAt": "2024-03-01T00:53:55.058Z",
  "devdoc": {
    "kind": "dev",
    "methods": {},
    "version": 1
  },
  "userdoc": {
    "kind": "user",
    "methods": {},
    "version": 1
  }
}