{
  "contractName": "ItemManager",
  "abi": [
    {
      "anonymous": false,
      "inputs": [
        {
          "indexed": false,
          "internalType": "address",
          "name": "_itemAddress",
          "type": "address"
        },
        {
          "indexed": false,
          "internalType": "uint256",
          "name": "_itemPrice",
          "type": "uint256"
        },
        {
          "indexed": false,
          "internalType": "uint256",
          "name": "_state",
          "type": "uint256"
        },
        {
          "indexed": false,
          "internalType": "uint256",
          "name": "_payment",
          "type": "uint256"
        }
      ],
      "name": "MyLog",
      "type": "event"
    },
    {
      "anonymous": false,
      "inputs": [
        {
          "indexed": false,
          "internalType": "address",
          "name": "_caller",
          "type": "address"
        },
        {
          "indexed": false,
          "internalType": "string",
          "name": "_message",
          "type": "string"
        }
      ],
      "name": "NotOwnerEvent",
      "type": "event"
    },
    {
      "anonymous": false,
      "inputs": [
        {
          "indexed": true,
          "internalType": "address",
          "name": "previousOwner",
          "type": "address"
        },
        {
          "indexed": true,
          "internalType": "address",
          "name": "newOwner",
          "type": "address"
        }
      ],
      "name": "OwnershipTransferred",
      "type": "event"
    },
    {
      "anonymous": false,
      "inputs": [
        {
          "indexed": false,
          "internalType": "string",
          "name": "_identifier",
          "type": "string"
        },
        {
          "indexed": false,
          "internalType": "uint256",
          "name": "_step",
          "type": "uint256"
        },
        {
          "indexed": false,
          "internalType": "address",
          "name": "_itemAddress",
          "type": "address"
        },
        {
          "indexed": false,
          "internalType": "uint256",
          "name": "_itemPrice",
          "type": "uint256"
        }
      ],
      "name": "SupplyChainStep",
      "type": "event"
    },
    {
      "anonymous": false,
      "inputs": [
        {
          "indexed": false,
          "internalType": "string",
          "name": "_message",
          "type": "string"
        }
      ],
      "name": "ValidationMessage",
      "type": "event"
    },
    {
      "inputs": [
        {
          "internalType": "address",
          "name": "",
          "type": "address"
        }
      ],
      "name": "items",
      "outputs": [
        {
          "internalType": "contract Item",
          "name": "_item",
          "type": "address"
        },
        {
          "internalType": "string",
          "name": "_identifier",
          "type": "string"
        },
        {
          "internalType": "uint256",
          "name": "_itemPrice",
          "type": "uint256"
        },
        {
          "internalType": "enum ItemManager.SupplyChainState",
          "name": "_state",
          "type": "uint8"
        }
      ],
      "stateMutability": "view",
      "type": "function",
      "constant": true
    },
    {
      "inputs": [],
      "name": "owner",
      "outputs": [
        {
          "internalType": "address",
          "name": "",
          "type": "address"
        }
      ],
      "stateMutability": "view",
      "type": "function",
      "constant": true
    },
    {
      "inputs": [],
      "name": "renounceOwnership",
      "outputs": [],
      "stateMutability": "nonpayable",
      "type": "function"
    },
    {
      "inputs": [
        {
          "internalType": "address",
          "name": "newOwner",
          "type": "address"
        }
      ],
      "name": "transferOwnership",
      "outputs": [],
      "stateMutability": "nonpayable",
      "type": "function"
    },
    {
      "inputs": [
        {
          "internalType": "string",
          "name": "_identifier",
          "type": "string"
        },
        {
          "internalType": "uint256",
          "name": "_itemPrice",
          "type": "uint256"
        }
      ],
      "name": "createItem",
      "outputs": [],
      "stateMutability": "nonpayable",
      "type": "function"
    },
    {
      "inputs": [
        {
          "internalType": "address",
          "name": "_itemAddress",
          "type": "address"
        },
        {
          "internalType": "uint256",
          "name": "_itemPrice",
          "type": "uint256"
        }
      ],
      "name": "triggerPayment",
      "outputs": [],
      "stateMutability": "payable",
      "type": "function",
      "payable": true
    },
    {
      "inputs": [],
      "name": "getTotalItemCount",
      "outputs": [
        {
          "internalType": "uint256",
          "name": "",
          "type": "uint256"
        }
      ],
      "stateMutability": "view",
      "type": "function",
      "constant": true
    },
    {
      "inputs": [
        {
          "internalType": "address",
          "name": "itemAddress",
          "type": "address"
        }
      ],
      "name": "getItem",
      "outputs": [
        {
          "internalType": "string",
          "name": "",
          "type": "string"
        }
      ],
      "stateMutability": "view",
      "type": "function",
      "constant": true
    }
  ],
  "bytecode": "0x608060405234801561001057600080fd5b5060006100216100c460201b60201c565b9050806000806101000a81548173ffffffffffffffffffffffffffffffffffffffff021916908373ffffffffffffffffffffffffffffffffffffffff1602179055508073ffffffffffffffffffffffffffffffffffffffff16600073ffffffffffffffffffffffffffffffffffffffff167f8be0079c531659141344cd1fd0a4f28419497f9722a3daafe3b4186f6b6457e060405160405180910390a3506100cc565b600033905090565b612049806100db6000396000f3fe608060405260043610620000865760003560e01c80638da5cb5b11620000555780638da5cb5b14620001475780639de585c11462000177578063d321411c1462000197578063f2fde38b14620001de5762000086565b806314d8c981146200008b5780636043f75b14620000cf578063715018a614620000ff5780638c5517421462000119575b600080fd5b3480156200009857600080fd5b50620000b76004803603810190620000b19190620011e3565b6200020c565b604051620000c6919062001730565b60405180910390f35b348015620000dc57600080fd5b50620000e7620002e8565b604051620000f6919062001830565b60405180910390f35b3480156200010c57600080fd5b5062000117620002f2565b005b3480156200012657600080fd5b506200014560048036038101906200013f919062001250565b62000433565b005b3480156200015457600080fd5b506200015f620007dd565b6040516200016e9190620015ca565b60405180910390f35b6200019560048036038101906200018f91906200120f565b62000806565b005b348015620001a457600080fd5b50620001c36004803603810190620001bd9190620011e3565b62000ddd565b604051620001d59493929190620016dc565b60405180910390f35b348015620001eb57600080fd5b506200020a6004803603810190620002049190620011e3565b62000eca565b005b6060600160008373ffffffffffffffffffffffffffffffffffffffff1673ffffffffffffffffffffffffffffffffffffffff16815260200190815260200160002060010180546200025d90620019e1565b80601f01602080910402602001604051908101604052809291908181526020018280546200028b90620019e1565b8015620002dc5780601f10620002b057610100808354040283529160200191620002dc565b820191906000526020600020905b815481529060010190602001808311620002be57829003601f168201915b50505050509050919050565b6000600254905090565b620002fc6200107d565b73ffffffffffffffffffffffffffffffffffffffff166200031c620007dd565b73ffffffffffffffffffffffffffffffffffffffff161462000375576040517f08c379a00000000000000000000000000000000000000000000000000000000081526004016200036c90620017ec565b60405180910390fd5b600073ffffffffffffffffffffffffffffffffffffffff1660008054906101000a900473ffffffffffffffffffffffffffffffffffffffff1673ffffffffffffffffffffffffffffffffffffffff167f8be0079c531659141344cd1fd0a4f28419497f9722a3daafe3b4186f6b6457e060405160405180910390a360008060006101000a81548173ffffffffffffffffffffffffffffffffffffffff021916908373ffffffffffffffffffffffffffffffffffffffff160217905550565b6200043d620007dd565b73ffffffffffffffffffffffffffffffffffffffff166200045d6200107d565b73ffffffffffffffffffffffffffffffffffffffff1614620004c1577f7bfbd8d5eb9e55fa286068ab04019f44bc8b5e4edb0c2a08401be2c5cdcc5df6620004a46200107d565b604051620004b39190620015e7565b60405180910390a1620007d9565b6000308383604051620004d49062001085565b620004e29392919062001698565b604051809103906000f080158015620004ff573d6000803e3d6000fd5b50905080600160008373ffffffffffffffffffffffffffffffffffffffff1673ffffffffffffffffffffffffffffffffffffffff16815260200190815260200160002060000160006101000a81548173ffffffffffffffffffffffffffffffffffffffff021916908373ffffffffffffffffffffffffffffffffffffffff16021790555082600160008373ffffffffffffffffffffffffffffffffffffffff1673ffffffffffffffffffffffffffffffffffffffff1681526020019081526020016000206001019080519060200190620005db92919062001093565b5081600160008373ffffffffffffffffffffffffffffffffffffffff1673ffffffffffffffffffffffffffffffffffffffff168152602001908152602001600020600201819055506000600160008373ffffffffffffffffffffffffffffffffffffffff1673ffffffffffffffffffffffffffffffffffffffff16815260200190815260200160002060030160006101000a81548160ff02191690836002811115620006b0577f4e487b7100000000000000000000000000000000000000000000000000000000600052602160045260246000fd5b02179055507fedbdfcf8cc592435bc8ca23428200230da576a019193008c9f3896f03e7bd759600160008373ffffffffffffffffffffffffffffffffffffffff1673ffffffffffffffffffffffffffffffffffffffff168152602001908152602001600020600101600160008473ffffffffffffffffffffffffffffffffffffffff1673ffffffffffffffffffffffffffffffffffffffff16815260200190815260200160002060030160009054906101000a900460ff166002811115620007a1577f4e487b7100000000000000000000000000000000000000000000000000000000600052602160045260246000fd5b8385604051620007b5949392919062001754565b60405180910390a160026000815480929190620007d29062001a17565b9190505550505b5050565b60008060009054906101000a900473ffffffffffffffffffffffffffffffffffffffff16905090565b6000600190507fabf49c168776b4b3d5536999c29e18ef0d7ec2ab8c5f59e3fb05a9c3745dd46d83600160008673ffffffffffffffffffffffffffffffffffffffff1673ffffffffffffffffffffffffffffffffffffffff16815260200190815260200160002060020154600160008773ffffffffffffffffffffffffffffffffffffffff1673ffffffffffffffffffffffffffffffffffffffff16815260200190815260200160002060030160009054906101000a900460ff166002811115620008fa577f4e487b7100000000000000000000000000000000000000000000000000000000600052602160045260246000fd5b346040516200090d94939291906200164b565b60405180910390a16200091f620007dd565b73ffffffffffffffffffffffffffffffffffffffff166200093f6200107d565b73ffffffffffffffffffffffffffffffffffffffff161415620009a8577f7bfbd8d5eb9e55fa286068ab04019f44bc8b5e4edb0c2a08401be2c5cdcc5df6620009876200107d565b60405162000996919062001619565b60405180910390a16000905062000b35565b81600160008573ffffffffffffffffffffffffffffffffffffffff1673ffffffffffffffffffffffffffffffffffffffff168152602001908152602001600020600201541462000a2e57600090507fefd0c5be3b31d9a011b17428735a9cce5054ae1318464339009565b2f722001060405162000a25906200180e565b60405180910390a15b6000600281111562000a69577f4e487b7100000000000000000000000000000000000000000000000000000000600052602160045260246000fd5b600160008573ffffffffffffffffffffffffffffffffffffffff1673ffffffffffffffffffffffffffffffffffffffff16815260200190815260200160002060030160009054906101000a900460ff16600281111562000af2577f4e487b7100000000000000000000000000000000000000000000000000000000600052602160045260246000fd5b1462000b3457600090507fefd0c5be3b31d9a011b17428735a9cce5054ae1318464339009565b2f722001060405162000b2b90620017a8565b60405180910390a15b5b801562000d7f5760018060008573ffffffffffffffffffffffffffffffffffffffff1673ffffffffffffffffffffffffffffffffffffffff16815260200190815260200160002060030160006101000a81548160ff0219169083600281111562000bc8577f4e487b7100000000000000000000000000000000000000000000000000000000600052602160045260246000fd5b02179055507fedbdfcf8cc592435bc8ca23428200230da576a019193008c9f3896f03e7bd759600160008573ffffffffffffffffffffffffffffffffffffffff1673ffffffffffffffffffffffffffffffffffffffff168152602001908152602001600020600101600160008673ffffffffffffffffffffffffffffffffffffffff1673ffffffffffffffffffffffffffffffffffffffff16815260200190815260200160002060030160009054906101000a900460ff16600281111562000cb9577f4e487b7100000000000000000000000000000000000000000000000000000000600052602160045260246000fd5b600160008773ffffffffffffffffffffffffffffffffffffffff1673ffffffffffffffffffffffffffffffffffffffff16815260200190815260200160002060000160009054906101000a900473ffffffffffffffffffffffffffffffffffffffff16600160008873ffffffffffffffffffffffffffffffffffffffff1673ffffffffffffffffffffffffffffffffffffffff1681526020019081526020016000206002015460405162000d71949392919062001754565b60405180910390a162000dd7565b62000d896200107d565b73ffffffffffffffffffffffffffffffffffffffff166108fc349081150290604051600060405180830381858888f1935050505015801562000dcf573d6000803e3d6000fd5b505062000dd9565b505b5050565b60016020528060005260406000206000915090508060000160009054906101000a900473ffffffffffffffffffffffffffffffffffffffff169080600101805462000e2890620019e1565b80601f016020809104026020016040519081016040528092919081815260200182805462000e5690620019e1565b801562000ea75780601f1062000e7b5761010080835404028352916020019162000ea7565b820191906000526020600020905b81548152906001019060200180831162000e8957829003601f168201915b5050505050908060020154908060030160009054906101000a900460ff16905084565b62000ed46200107d565b73ffffffffffffffffffffffffffffffffffffffff1662000ef4620007dd565b73ffffffffffffffffffffffffffffffffffffffff161462000f4d576040517f08c379a000000000000000000000000000000000000000000000000000000000815260040162000f4490620017ec565b60405180910390fd5b600073ffffffffffffffffffffffffffffffffffffffff168173ffffffffffffffffffffffffffffffffffffffff16141562000fc0576040517f08c379a000000000000000000000000000000000000000000000000000000000815260040162000fb790620017ca565b60405180910390fd5b8073ffffffffffffffffffffffffffffffffffffffff1660008054906101000a900473ffffffffffffffffffffffffffffffffffffffff1673ffffffffffffffffffffffffffffffffffffffff167f8be0079c531659141344cd1fd0a4f28419497f9722a3daafe3b4186f6b6457e060405160405180910390a3806000806101000a81548173ffffffffffffffffffffffffffffffffffffffff021916908373ffffffffffffffffffffffffffffffffffffffff16021790555050565b600033905090565b6104968062001b7e83390190565b828054620010a190620019e1565b90600052602060002090601f016020900481019282620010c5576000855562001111565b82601f10620010e057805160ff191683800117855562001111565b8280016001018555821562001111579182015b8281111562001110578251825591602001919060010190620010f3565b5b50905062001120919062001124565b5090565b5b808211156200113f57600081600090555060010162001125565b5090565b60006200115a620011548462001881565b6200184d565b9050828152602081018484840111156200117357600080fd5b620011808482856200199c565b509392505050565b600081359050620011998162001b49565b92915050565b600082601f830112620011b157600080fd5b8135620011c384826020860162001143565b91505092915050565b600081359050620011dd8162001b63565b92915050565b600060208284031215620011f657600080fd5b6000620012068482850162001188565b91505092915050565b600080604083850312156200122357600080fd5b6000620012338582860162001188565b92505060206200124685828601620011cc565b9150509250929050565b600080604083850312156200126457600080fd5b600083013567ffffffffffffffff8111156200127f57600080fd5b6200128d858286016200119f565b9250506020620012a085828601620011cc565b9150509250929050565b620012b581620018e5565b82525050565b620012c68162001938565b82525050565b620012d78162001960565b82525050565b620012e88162001988565b82525050565b6000620012fb82620018c9565b620013078185620018d4565b935062001319818560208601620019ab565b620013248162001b21565b840191505092915050565b600081546200133e81620019e1565b6200134a8186620018d4565b945060018216600081146200136857600181146200137b57620013b2565b60ff1983168652602086019350620013b2565b6200138685620018b4565b60005b83811015620013aa5781548189015260018201915060208101905062001389565b808801955050505b50505092915050565b6000620013ca601c83620018d4565b91507f4974656d206973206675727468657220696e2074686520636861696e000000006000830152602082019050919050565b60006200140c602683620018d4565b91507f4f776e61626c653a206e6577206f776e657220697320746865207a65726f206160008301527f64647265737300000000000000000000000000000000000000000000000000006020830152604082019050919050565b600062001474603483620018d4565b91507f56616c69646174696f6e206661696c7572653a2043616c6c6572206973206e6f60008301527f742074686520636f6e7472616374206f776e65720000000000000000000000006020830152604082019050919050565b6000620014dc603383620018d4565b91507f56616c69646174696f6e206661696c7572653a20596f752063616e277420627560008301527f7920796f7572206f776e2070726f6475637421000000000000000000000000006020830152604082019050919050565b600062001544602083620018d4565b91507f4f776e61626c653a2063616c6c6572206973206e6f7420746865206f776e65726000830152602082019050919050565b600062001586601c83620018d4565b91507f4f6e6c79792066756c6c207061796d656e7473206163636570746564000000006000830152602082019050919050565b620015c4816200192e565b82525050565b6000602082019050620015e16000830184620012aa565b92915050565b6000604082019050620015fe6000830184620012aa565b8181036020830152620016118162001465565b905092915050565b6000604082019050620016306000830184620012aa565b81810360208301526200164381620014cd565b905092915050565b6000608082019050620016626000830187620012aa565b620016716020830186620015b9565b620016806040830185620015b9565b6200168f6060830184620015b9565b95945050505050565b6000606082019050620016af6000830186620012bb565b8181036020830152620016c38185620012ee565b9050620016d46040830184620015b9565b949350505050565b6000608082019050620016f36000830187620012cc565b8181036020830152620017078186620012ee565b9050620017186040830185620015b9565b620017276060830184620012dd565b95945050505050565b600060208201905081810360008301526200174c8184620012ee565b905092915050565b600060808201905081810360008301526200177081876200132f565b9050620017816020830186620015b9565b620017906040830185620012aa565b6200179f6060830184620015b9565b95945050505050565b60006020820190508181036000830152620017c381620013bb565b9050919050565b60006020820190508181036000830152620017e581620013fd565b9050919050565b60006020820190508181036000830152620018078162001535565b9050919050565b60006020820190508181036000830152620018298162001577565b9050919050565b6000602082019050620018476000830184620015b9565b92915050565b6000604051905081810181811067ffffffffffffffff8211171562001877576200187662001af2565b5b8060405250919050565b600067ffffffffffffffff8211156200189f576200189e62001af2565b5b601f19601f8301169050602081019050919050565b60008190508160005260206000209050919050565b600081519050919050565b600082825260208201905092915050565b6000620018f2826200190e565b9050919050565b6000819050620019098262001b32565b919050565b600073ffffffffffffffffffffffffffffffffffffffff82169050919050565b6000819050919050565b600062001945826200194c565b9050919050565b600062001959826200190e565b9050919050565b60006200196d8262001974565b9050919050565b600062001981826200190e565b9050919050565b60006200199582620018f9565b9050919050565b82818337600083830152505050565b60005b83811015620019cb578082015181840152602081019050620019ae565b83811115620019db576000848401525b50505050565b60006002820490506001821680620019fa57607f821691505b6020821081141562001a115762001a1062001ac3565b5b50919050565b600062001a24826200192e565b91507fffffffffffffffffffffffffffffffffffffffffffffffffffffffffffffffff82141562001a5a5762001a5962001a65565b5b600182019050919050565b7f4e487b7100000000000000000000000000000000000000000000000000000000600052601160045260246000fd5b7f4e487b7100000000000000000000000000000000000000000000000000000000600052602160045260246000fd5b7f4e487b7100000000000000000000000000000000000000000000000000000000600052602260045260246000fd5b7f4e487b7100000000000000000000000000000000000000000000000000000000600052604160045260246000fd5b6000601f19601f8301169050919050565b6003811062001b465762001b4562001a94565b5b50565b62001b5481620018e5565b811462001b6057600080fd5b50565b62001b6e816200192e565b811462001b7a57600080fd5b5056fe608060405234801561001057600080fd5b50604051610496380380610496833981810160405281019061003291906101ce565b8160009080519060200190610048929190610099565b508060018190555082600260006101000a81548173ffffffffffffffffffffffffffffffffffffffff021916908373ffffffffffffffffffffffffffffffffffffffff1602179055505050506103d5565b8280546100a590610317565b90600052602060002090601f0160209004810192826100c7576000855561010e565b82601f106100e057805160ff191683800117855561010e565b8280016001018555821561010e579182015b8281111561010d5782518255916020019190600101906100f2565b5b50905061011b919061011f565b5090565b5b80821115610138576000816000905550600101610120565b5090565b600061014f61014a84610266565b610235565b90508281526020810184848401111561016757600080fd5b6101728482856102e4565b509392505050565b600081519050610189816103a7565b92915050565b600082601f8301126101a057600080fd5b81516101b084826020860161013c565b91505092915050565b6000815190506101c8816103be565b92915050565b6000806000606084860312156101e357600080fd5b60006101f18682870161017a565b935050602084015167ffffffffffffffff81111561020e57600080fd5b61021a8682870161018f565b925050604061022b868287016101b9565b9150509250925092565b6000604051905081810181811067ffffffffffffffff8211171561025c5761025b610378565b5b8060405250919050565b600067ffffffffffffffff82111561028157610280610378565b5b601f19601f8301169050602081019050919050565b60006102a1826102ba565b9050919050565b60006102b382610296565b9050919050565b600073ffffffffffffffffffffffffffffffffffffffff82169050919050565b6000819050919050565b60005b838110156103025780820151818401526020810190506102e7565b83811115610311576000848401525b50505050565b6000600282049050600182168061032f57607f821691505b6020821081141561034357610342610349565b5b50919050565b7f4e487b7100000000000000000000000000000000000000000000000000000000600052602260045260246000fd5b7f4e487b7100000000000000000000000000000000000000000000000000000000600052604160045260246000fd5b6103b0816102a8565b81146103bb57600080fd5b50565b6103c7816102da565b81146103d257600080fd5b50565b60b3806103e36000396000f3fe6080604052348015600f57600080fd5b506004361060285760003560e01c80633c8da58814602d575b600080fd5b60336047565b604051603e9190605a565b60405180910390f35b60015481565b6054816073565b82525050565b6000602082019050606d6000830184604d565b92915050565b600081905091905056fea2646970667358221220e48361bb13825ef25a9339fa5d9bc149e8e80effc3c8869d1638cb493971838364736f6c63430008000033a264697066735822122006391cc8102b9b9e25dcedfbf31a09b64c81b3796eca9417f93503b84012171b64736f6c63430008000033",
  "immutableReferences": {},
  "source": "// SPDX-License-Identifier: GPL-3.0\n\npragma solidity ^0.8.0;\n\nimport \"@openzeppelin/contracts/access/Ownable.sol\";\nimport \"./Item.sol\";\n\n// Smart contract responsible for \n// 1. Item creation in the store\n// 2. Buying an item from the store\n// 3. Payment handling\n// 4. Dispatching \n// 5. Tracking\n// This uses openzepplin's Ownable contract to provide the access and ownership managemnt\n\ncontract ItemManager is Ownable {\n\n    enum SupplyChainState {Created, Paid, Delivered}\n\n    struct S_Item {\n        Item _item;\n        string _identifier;\n        uint _itemPrice;\n        ItemManager.SupplyChainState _state;\n    }\n\n    //mapping(uint => S_Item) public items;\n    mapping(address => S_Item) public items;\n    uint itemIndex;\n\n    event SupplyChainStep(string _identifier, uint _step, address _itemAddress, uint _itemPrice);\n    \n    event MyLog(address _itemAddress, uint _itemPrice, uint _state, uint _payment);\n\n    event ValidationMessage(string _message);\n\n    event NotOwnerEvent(address _caller, string _message);\n\n    function createItem(string memory _identifier, uint _itemPrice) public {\n        if (_msgSender() != owner()) {\n            emit NotOwnerEvent(_msgSender(), \"Validation failure: Caller is not the contract owner\");\n            //require(_msgSender() == owner(), \">>> Not the owner\");\n        } else {\n            Item item = new Item(this, _identifier, _itemPrice);\n\n            //emit log(_identifier, _itemPrice, address(item), address(this));\n\n            items[address(item)]._item = item;\n            items[address(item)]._identifier = _identifier;\n            items[address(item)]._itemPrice = _itemPrice;\n            items[address(item)]._state = SupplyChainState.Created;\n\n            emit SupplyChainStep(items[address(item)]._identifier, uint(items[address(item)]._state), address(item), _itemPrice);\n\n            itemIndex++;\n        }\n    }\n\n    function triggerPayment(address _itemAddress, uint _itemPrice) public payable {\n\n        bool isValid = true;\n\n        emit MyLog(_itemAddress, uint(items[_itemAddress]._itemPrice), uint(items[_itemAddress]._state), msg.value);\n\n        if (_msgSender() == owner()) {\n\n            emit NotOwnerEvent(_msgSender(), \"Validation failure: You can't buy your own product!\");\n            isValid = false;\n        } else {\n\n            if(items[_itemAddress]._itemPrice != _itemPrice) {\n                isValid = false;\n                emit ValidationMessage(\"Onlyy full payments accepted\");\n            }\n            \n            if(items[_itemAddress]._state != SupplyChainState.Created) {\n                isValid = false;\n                emit ValidationMessage(\"Item is further in the chain\");\n            }\n\n            //require(items[_itemAddress]._itemPrice == _itemPrice, \"Onlyyyyy full payments accepted\");\n            //require(items[_itemAddress]._state == SupplyChainState.Created, \"Item is further in the chain\");\n        \n        }\n\n        if(isValid) {\n            items[_itemAddress]._state = SupplyChainState.Paid;\n            emit SupplyChainStep(items[_itemAddress]._identifier, uint(items[_itemAddress]._state), address(items[_itemAddress]._item), items[_itemAddress]._itemPrice);\n        } else {\n            // Refund the transaction value (in wei) to the caller\n            payable(_msgSender()).transfer(msg.value);\n            return;\n        }\n\n    }\n\n    // function triggerDelivery(uint _itemIndex) public onlyOwner {\n    //     require(items[_itemIndex]._state == SupplyChainState.Paid, \"Item need to be fully paid before delivery\");\n    //     items[_itemIndex]._state = SupplyChainState.Delivered;\n\n    //     emit SupplyChainStep(_itemIndex, uint(items[_itemIndex]._state), address(items[_itemIndex]._item));\n\n    // }\n\n\n    function getTotalItemCount() public view returns (uint) {\n        return itemIndex;\n    }\n\n\n    function getItem(address itemAddress) public view returns (string memory) {\n        return items[itemAddress]._identifier;\n    }\n\n}",
  "sourcePath": "/Users/vinit/Dcu-workspace/eth/codebase/project/supply-chain-demo/contracts/ItemManager.sol",
  "compiler": {
    "name": "solc",
    "version": "0.8.0+commit.c7dfd78e.Emscripten.clang"
  },
  "schemaVersion": "3.4.16",
  "updatedAt": "2024-03-02T00:07:30.397Z",
  "networkType": "ethereum",
  "devdoc": {
    "kind": "dev",
    "methods": {
      "owner()": {
        "details": "Returns the address of the current owner."
      },
      "renounceOwnership()": {
        "details": "Leaves the contract without owner. It will not be possible to call `onlyOwner` functions anymore. Can only be called by the current owner. NOTE: Renouncing ownership will leave the contract without an owner, thereby removing any functionality that is only available to the owner."
      },
      "transferOwnership(address)": {
        "details": "Transfers ownership of the contract to a new account (`newOwner`). Can only be called by the current owner."
      }
    },
    "version": 1
  },
  "userdoc": {
    "kind": "user",
    "methods": {},
    "version": 1
  }
}