{
  "contractName": "ItemManager",
  "abi": [
    {
      "anonymous": false,
      "inputs": [
        {
          "indexed": false,
          "internalType": "address",
          "name": "_itemAddress",
          "type": "address"
        },
        {
          "indexed": false,
          "internalType": "uint256",
          "name": "_itemPrice",
          "type": "uint256"
        },
        {
          "indexed": false,
          "internalType": "uint256",
          "name": "_state",
          "type": "uint256"
        },
        {
          "indexed": false,
          "internalType": "uint256",
          "name": "_payment",
          "type": "uint256"
        }
      ],
      "name": "MyLog",
      "type": "event"
    },
    {
      "anonymous": false,
      "inputs": [
        {
          "indexed": true,
          "internalType": "address",
          "name": "previousOwner",
          "type": "address"
        },
        {
          "indexed": true,
          "internalType": "address",
          "name": "newOwner",
          "type": "address"
        }
      ],
      "name": "OwnershipTransferred",
      "type": "event"
    },
    {
      "anonymous": false,
      "inputs": [
        {
          "indexed": false,
          "internalType": "string",
          "name": "_identifier",
          "type": "string"
        },
        {
          "indexed": false,
          "internalType": "uint256",
          "name": "_step",
          "type": "uint256"
        },
        {
          "indexed": false,
          "internalType": "address",
          "name": "_itemAddress",
          "type": "address"
        },
        {
          "indexed": false,
          "internalType": "uint256",
          "name": "_itemPrice",
          "type": "uint256"
        }
      ],
      "name": "SupplyChainStep",
      "type": "event"
    },
    {
      "inputs": [
        {
          "internalType": "address",
          "name": "",
          "type": "address"
        }
      ],
      "name": "items",
      "outputs": [
        {
          "internalType": "contract Item",
          "name": "_item",
          "type": "address"
        },
        {
          "internalType": "string",
          "name": "_identifier",
          "type": "string"
        },
        {
          "internalType": "uint256",
          "name": "_itemPrice",
          "type": "uint256"
        },
        {
          "internalType": "enum ItemManager.SupplyChainState",
          "name": "_state",
          "type": "uint8"
        }
      ],
      "stateMutability": "view",
      "type": "function",
      "constant": true
    },
    {
      "inputs": [],
      "name": "owner",
      "outputs": [
        {
          "internalType": "address",
          "name": "",
          "type": "address"
        }
      ],
      "stateMutability": "view",
      "type": "function",
      "constant": true
    },
    {
      "inputs": [],
      "name": "renounceOwnership",
      "outputs": [],
      "stateMutability": "nonpayable",
      "type": "function"
    },
    {
      "inputs": [
        {
          "internalType": "address",
          "name": "newOwner",
          "type": "address"
        }
      ],
      "name": "transferOwnership",
      "outputs": [],
      "stateMutability": "nonpayable",
      "type": "function"
    },
    {
      "inputs": [
        {
          "internalType": "string",
          "name": "_identifier",
          "type": "string"
        },
        {
          "internalType": "uint256",
          "name": "_itemPrice",
          "type": "uint256"
        }
      ],
      "name": "createItem",
      "outputs": [],
      "stateMutability": "nonpayable",
      "type": "function"
    },
    {
      "inputs": [
        {
          "internalType": "address",
          "name": "_itemAddress",
          "type": "address"
        },
        {
          "internalType": "uint256",
          "name": "_itemPrice",
          "type": "uint256"
        }
      ],
      "name": "triggerPayment",
      "outputs": [],
      "stateMutability": "payable",
      "type": "function",
      "payable": true
    },
    {
      "inputs": [],
      "name": "getTotalItemCount",
      "outputs": [
        {
          "internalType": "uint256",
          "name": "",
          "type": "uint256"
        }
      ],
      "stateMutability": "view",
      "type": "function",
      "constant": true
    },
    {
      "inputs": [
        {
          "internalType": "address",
          "name": "itemAddress",
          "type": "address"
        }
      ],
      "name": "getItem",
      "outputs": [
        {
          "internalType": "string",
          "name": "",
          "type": "string"
        }
      ],
      "stateMutability": "view",
      "type": "function",
      "constant": true
    }
  ],
  "bytecode": "0x608060405234801561001057600080fd5b5060006100216100c460201b60201c565b9050806000806101000a81548173ffffffffffffffffffffffffffffffffffffffff021916908373ffffffffffffffffffffffffffffffffffffffff1602179055508073ffffffffffffffffffffffffffffffffffffffff16600073ffffffffffffffffffffffffffffffffffffffff167f8be0079c531659141344cd1fd0a4f28419497f9722a3daafe3b4186f6b6457e060405160405180910390a3506100cc565b600033905090565b611e0a806100db6000396000f3fe608060405260043610620000865760003560e01c80638da5cb5b11620000555780638da5cb5b14620001475780639de585c11462000177578063d321411c1462000197578063f2fde38b14620001de5762000086565b806314d8c981146200008b5780636043f75b14620000cf578063715018a614620000ff5780638c5517421462000119575b600080fd5b3480156200009857600080fd5b50620000b76004803603810190620000b19190620010d8565b6200020c565b604051620000c69190620014f1565b60405180910390f35b348015620000dc57600080fd5b50620000e7620002e8565b604051620000f69190620015f1565b60405180910390f35b3480156200010c57600080fd5b5062000117620002f2565b005b3480156200012657600080fd5b506200014560048036038101906200013f919062001145565b62000433565b005b3480156200015457600080fd5b506200015f620007d1565b6040516200016e9190620013ef565b60405180910390f35b6200019560048036038101906200018f919062001104565b620007fa565b005b348015620001a457600080fd5b50620001c36004803603810190620001bd9190620010d8565b62000cd2565b604051620001d594939291906200149d565b60405180910390f35b348015620001eb57600080fd5b506200020a6004803603810190620002049190620010d8565b62000dbf565b005b6060600160008373ffffffffffffffffffffffffffffffffffffffff1673ffffffffffffffffffffffffffffffffffffffff16815260200190815260200160002060010180546200025d90620017a2565b80601f01602080910402602001604051908101604052809291908181526020018280546200028b90620017a2565b8015620002dc5780601f10620002b057610100808354040283529160200191620002dc565b820191906000526020600020905b815481529060010190602001808311620002be57829003601f168201915b50505050509050919050565b6000600254905090565b620002fc62000f72565b73ffffffffffffffffffffffffffffffffffffffff166200031c620007d1565b73ffffffffffffffffffffffffffffffffffffffff161462000375576040517f08c379a00000000000000000000000000000000000000000000000000000000081526004016200036c90620015cf565b60405180910390fd5b600073ffffffffffffffffffffffffffffffffffffffff1660008054906101000a900473ffffffffffffffffffffffffffffffffffffffff1673ffffffffffffffffffffffffffffffffffffffff167f8be0079c531659141344cd1fd0a4f28419497f9722a3daafe3b4186f6b6457e060405160405180910390a360008060006101000a81548173ffffffffffffffffffffffffffffffffffffffff021916908373ffffffffffffffffffffffffffffffffffffffff160217905550565b6200043d62000f72565b73ffffffffffffffffffffffffffffffffffffffff166200045d620007d1565b73ffffffffffffffffffffffffffffffffffffffff1614620004b6576040517f08c379a0000000000000000000000000000000000000000000000000000000008152600401620004ad90620015cf565b60405180910390fd5b6000308383604051620004c99062000f7a565b620004d79392919062001459565b604051809103906000f080158015620004f4573d6000803e3d6000fd5b50905080600160008373ffffffffffffffffffffffffffffffffffffffff1673ffffffffffffffffffffffffffffffffffffffff16815260200190815260200160002060000160006101000a81548173ffffffffffffffffffffffffffffffffffffffff021916908373ffffffffffffffffffffffffffffffffffffffff16021790555082600160008373ffffffffffffffffffffffffffffffffffffffff1673ffffffffffffffffffffffffffffffffffffffff1681526020019081526020016000206001019080519060200190620005d092919062000f88565b5081600160008373ffffffffffffffffffffffffffffffffffffffff1673ffffffffffffffffffffffffffffffffffffffff168152602001908152602001600020600201819055506000600160008373ffffffffffffffffffffffffffffffffffffffff1673ffffffffffffffffffffffffffffffffffffffff16815260200190815260200160002060030160006101000a81548160ff02191690836002811115620006a5577f4e487b7100000000000000000000000000000000000000000000000000000000600052602160045260246000fd5b02179055507fedbdfcf8cc592435bc8ca23428200230da576a019193008c9f3896f03e7bd759600160008373ffffffffffffffffffffffffffffffffffffffff1673ffffffffffffffffffffffffffffffffffffffff168152602001908152602001600020600101600160008473ffffffffffffffffffffffffffffffffffffffff1673ffffffffffffffffffffffffffffffffffffffff16815260200190815260200160002060030160009054906101000a900460ff16600281111562000796577f4e487b7100000000000000000000000000000000000000000000000000000000600052602160045260246000fd5b8385604051620007aa949392919062001515565b60405180910390a160026000815480929190620007c790620017d8565b9190505550505050565b60008060009054906101000a900473ffffffffffffffffffffffffffffffffffffffff16905090565b7fabf49c168776b4b3d5536999c29e18ef0d7ec2ab8c5f59e3fb05a9c3745dd46d82600160008573ffffffffffffffffffffffffffffffffffffffff1673ffffffffffffffffffffffffffffffffffffffff16815260200190815260200160002060020154600160008673ffffffffffffffffffffffffffffffffffffffff1673ffffffffffffffffffffffffffffffffffffffff16815260200190815260200160002060030160009054906101000a900460ff166002811115620008e8577f4e487b7100000000000000000000000000000000000000000000000000000000600052602160045260246000fd5b34604051620008fb94939291906200140c565b60405180910390a180600160008473ffffffffffffffffffffffffffffffffffffffff1673ffffffffffffffffffffffffffffffffffffffff16815260200190815260200160002060020154146200098a576040517f08c379a00000000000000000000000000000000000000000000000000000000081526004016200098190620015ad565b60405180910390fd5b60006002811115620009c5577f4e487b7100000000000000000000000000000000000000000000000000000000600052602160045260246000fd5b600160008473ffffffffffffffffffffffffffffffffffffffff1673ffffffffffffffffffffffffffffffffffffffff16815260200190815260200160002060030160009054906101000a900460ff16600281111562000a4e577f4e487b7100000000000000000000000000000000000000000000000000000000600052602160045260246000fd5b1462000a91576040517f08c379a000000000000000000000000000000000000000000000000000000000815260040162000a889062001569565b60405180910390fd5b60018060008473ffffffffffffffffffffffffffffffffffffffff1673ffffffffffffffffffffffffffffffffffffffff16815260200190815260200160002060030160006101000a81548160ff0219169083600281111562000b1d577f4e487b7100000000000000000000000000000000000000000000000000000000600052602160045260246000fd5b02179055507fedbdfcf8cc592435bc8ca23428200230da576a019193008c9f3896f03e7bd759600160008473ffffffffffffffffffffffffffffffffffffffff1673ffffffffffffffffffffffffffffffffffffffff168152602001908152602001600020600101600160008573ffffffffffffffffffffffffffffffffffffffff1673ffffffffffffffffffffffffffffffffffffffff16815260200190815260200160002060030160009054906101000a900460ff16600281111562000c0e577f4e487b7100000000000000000000000000000000000000000000000000000000600052602160045260246000fd5b600160008673ffffffffffffffffffffffffffffffffffffffff1673ffffffffffffffffffffffffffffffffffffffff16815260200190815260200160002060000160009054906101000a900473ffffffffffffffffffffffffffffffffffffffff16600160008773ffffffffffffffffffffffffffffffffffffffff1673ffffffffffffffffffffffffffffffffffffffff1681526020019081526020016000206002015460405162000cc6949392919062001515565b60405180910390a15050565b60016020528060005260406000206000915090508060000160009054906101000a900473ffffffffffffffffffffffffffffffffffffffff169080600101805462000d1d90620017a2565b80601f016020809104026020016040519081016040528092919081815260200182805462000d4b90620017a2565b801562000d9c5780601f1062000d705761010080835404028352916020019162000d9c565b820191906000526020600020905b81548152906001019060200180831162000d7e57829003601f168201915b5050505050908060020154908060030160009054906101000a900460ff16905084565b62000dc962000f72565b73ffffffffffffffffffffffffffffffffffffffff1662000de9620007d1565b73ffffffffffffffffffffffffffffffffffffffff161462000e42576040517f08c379a000000000000000000000000000000000000000000000000000000000815260040162000e3990620015cf565b60405180910390fd5b600073ffffffffffffffffffffffffffffffffffffffff168173ffffffffffffffffffffffffffffffffffffffff16141562000eb5576040517f08c379a000000000000000000000000000000000000000000000000000000000815260040162000eac906200158b565b60405180910390fd5b8073ffffffffffffffffffffffffffffffffffffffff1660008054906101000a900473ffffffffffffffffffffffffffffffffffffffff1673ffffffffffffffffffffffffffffffffffffffff167f8be0079c531659141344cd1fd0a4f28419497f9722a3daafe3b4186f6b6457e060405160405180910390a3806000806101000a81548173ffffffffffffffffffffffffffffffffffffffff021916908373ffffffffffffffffffffffffffffffffffffffff16021790555050565b600033905090565b610496806200193f83390190565b82805462000f9690620017a2565b90600052602060002090601f01602090048101928262000fba576000855562001006565b82601f1062000fd557805160ff191683800117855562001006565b8280016001018555821562001006579182015b828111156200100557825182559160200191906001019062000fe8565b5b50905062001015919062001019565b5090565b5b80821115620010345760008160009055506001016200101a565b5090565b60006200104f620010498462001642565b6200160e565b9050828152602081018484840111156200106857600080fd5b620010758482856200175d565b509392505050565b6000813590506200108e816200190a565b92915050565b600082601f830112620010a657600080fd5b8135620010b884826020860162001038565b91505092915050565b600081359050620010d28162001924565b92915050565b600060208284031215620010eb57600080fd5b6000620010fb848285016200107d565b91505092915050565b600080604083850312156200111857600080fd5b600062001128858286016200107d565b92505060206200113b85828601620010c1565b9150509250929050565b600080604083850312156200115957600080fd5b600083013567ffffffffffffffff8111156200117457600080fd5b620011828582860162001094565b92505060206200119585828601620010c1565b9150509250929050565b620011aa81620016a6565b82525050565b620011bb81620016f9565b82525050565b620011cc8162001721565b82525050565b620011dd8162001749565b82525050565b6000620011f0826200168a565b620011fc818562001695565b93506200120e8185602086016200176c565b6200121981620018e2565b840191505092915050565b600081546200123381620017a2565b6200123f818662001695565b945060018216600081146200125d57600181146200127057620012a7565b60ff1983168652602086019350620012a7565b6200127b8562001675565b60005b838110156200129f578154818901526001820191506020810190506200127e565b808801955050505b50505092915050565b6000620012bf601c8362001695565b91507f4974656d206973206675727468657220696e2074686520636861696e000000006000830152602082019050919050565b60006200130160268362001695565b91507f4f776e61626c653a206e6577206f776e657220697320746865207a65726f206160008301527f64647265737300000000000000000000000000000000000000000000000000006020830152604082019050919050565b600062001369601f8362001695565b91507f4f6e6c79797979792066756c6c207061796d656e7473206163636570746564006000830152602082019050919050565b6000620013ab60208362001695565b91507f4f776e61626c653a2063616c6c6572206973206e6f7420746865206f776e65726000830152602082019050919050565b620013e981620016ef565b82525050565b60006020820190506200140660008301846200119f565b92915050565b60006080820190506200142360008301876200119f565b620014326020830186620013de565b620014416040830185620013de565b620014506060830184620013de565b95945050505050565b6000606082019050620014706000830186620011b0565b8181036020830152620014848185620011e3565b9050620014956040830184620013de565b949350505050565b6000608082019050620014b46000830187620011c1565b8181036020830152620014c88186620011e3565b9050620014d96040830185620013de565b620014e86060830184620011d2565b95945050505050565b600060208201905081810360008301526200150d8184620011e3565b905092915050565b6000608082019050818103600083015262001531818762001224565b9050620015426020830186620013de565b6200155160408301856200119f565b620015606060830184620013de565b95945050505050565b600060208201905081810360008301526200158481620012b0565b9050919050565b60006020820190508181036000830152620015a681620012f2565b9050919050565b60006020820190508181036000830152620015c8816200135a565b9050919050565b60006020820190508181036000830152620015ea816200139c565b9050919050565b6000602082019050620016086000830184620013de565b92915050565b6000604051905081810181811067ffffffffffffffff82111715620016385762001637620018b3565b5b8060405250919050565b600067ffffffffffffffff82111562001660576200165f620018b3565b5b601f19601f8301169050602081019050919050565b60008190508160005260206000209050919050565b600081519050919050565b600082825260208201905092915050565b6000620016b382620016cf565b9050919050565b6000819050620016ca82620018f3565b919050565b600073ffffffffffffffffffffffffffffffffffffffff82169050919050565b6000819050919050565b600062001706826200170d565b9050919050565b60006200171a82620016cf565b9050919050565b60006200172e8262001735565b9050919050565b60006200174282620016cf565b9050919050565b60006200175682620016ba565b9050919050565b82818337600083830152505050565b60005b838110156200178c5780820151818401526020810190506200176f565b838111156200179c576000848401525b50505050565b60006002820490506001821680620017bb57607f821691505b60208210811415620017d257620017d162001884565b5b50919050565b6000620017e582620016ef565b91507fffffffffffffffffffffffffffffffffffffffffffffffffffffffffffffffff8214156200181b576200181a62001826565b5b600182019050919050565b7f4e487b7100000000000000000000000000000000000000000000000000000000600052601160045260246000fd5b7f4e487b7100000000000000000000000000000000000000000000000000000000600052602160045260246000fd5b7f4e487b7100000000000000000000000000000000000000000000000000000000600052602260045260246000fd5b7f4e487b7100000000000000000000000000000000000000000000000000000000600052604160045260246000fd5b6000601f19601f8301169050919050565b6003811062001907576200190662001855565b5b50565b6200191581620016a6565b81146200192157600080fd5b50565b6200192f81620016ef565b81146200193b57600080fd5b5056fe608060405234801561001057600080fd5b50604051610496380380610496833981810160405281019061003291906101ce565b8160009080519060200190610048929190610099565b508060018190555082600260006101000a81548173ffffffffffffffffffffffffffffffffffffffff021916908373ffffffffffffffffffffffffffffffffffffffff1602179055505050506103d5565b8280546100a590610317565b90600052602060002090601f0160209004810192826100c7576000855561010e565b82601f106100e057805160ff191683800117855561010e565b8280016001018555821561010e579182015b8281111561010d5782518255916020019190600101906100f2565b5b50905061011b919061011f565b5090565b5b80821115610138576000816000905550600101610120565b5090565b600061014f61014a84610266565b610235565b90508281526020810184848401111561016757600080fd5b6101728482856102e4565b509392505050565b600081519050610189816103a7565b92915050565b600082601f8301126101a057600080fd5b81516101b084826020860161013c565b91505092915050565b6000815190506101c8816103be565b92915050565b6000806000606084860312156101e357600080fd5b60006101f18682870161017a565b935050602084015167ffffffffffffffff81111561020e57600080fd5b61021a8682870161018f565b925050604061022b868287016101b9565b9150509250925092565b6000604051905081810181811067ffffffffffffffff8211171561025c5761025b610378565b5b8060405250919050565b600067ffffffffffffffff82111561028157610280610378565b5b601f19601f8301169050602081019050919050565b60006102a1826102ba565b9050919050565b60006102b382610296565b9050919050565b600073ffffffffffffffffffffffffffffffffffffffff82169050919050565b6000819050919050565b60005b838110156103025780820151818401526020810190506102e7565b83811115610311576000848401525b50505050565b6000600282049050600182168061032f57607f821691505b6020821081141561034357610342610349565b5b50919050565b7f4e487b7100000000000000000000000000000000000000000000000000000000600052602260045260246000fd5b7f4e487b7100000000000000000000000000000000000000000000000000000000600052604160045260246000fd5b6103b0816102a8565b81146103bb57600080fd5b50565b6103c7816102da565b81146103d257600080fd5b50565b60b3806103e36000396000f3fe6080604052348015600f57600080fd5b506004361060285760003560e01c80633c8da58814602d575b600080fd5b60336047565b604051603e9190605a565b60405180910390f35b60015481565b6054816073565b82525050565b6000602082019050606d6000830184604d565b92915050565b600081905091905056fea2646970667358221220ce244f7607c0e337bce090827e1b7eaa13977702e7cfce18bd81286b3782f37664736f6c63430008000033a26469706673582212206dc373b75eeba232107b3d14211168341281077c5e3a7c6406c8dc2e2858a6aa64736f6c63430008000033",
  "immutableReferences": {},
  "source": "// SPDX-License-Identifier: GPL-3.0\n\npragma solidity ^0.8.0;\n\nimport \"./MyOwnableContract.sol\";\nimport \"./Item.sol\";\n\ncontract ItemManager is MyOwnableContract {\n\n    enum SupplyChainState {Created, Paid, Delivered}\n\n    struct S_Item {\n        Item _item;\n        string _identifier;\n        uint _itemPrice;\n        ItemManager.SupplyChainState _state;\n    }\n\n    //mapping(uint => S_Item) public items;\n    mapping(address => S_Item) public items;\n    uint itemIndex;\n\n    event SupplyChainStep(string _identifier, uint _step, address _itemAddress, uint _itemPrice);\n    \n    event MyLog(address _itemAddress, uint _itemPrice, uint _state, uint _payment);\n\n    function createItem(string memory _identifier, uint _itemPrice) public onlyOwner {\n\n        Item item = new Item(this, _identifier, _itemPrice);\n\n        //emit log(_identifier, _itemPrice, address(item), address(this));\n\n         items[address(item)]._item = item;\n         items[address(item)]._identifier = _identifier;\n         items[address(item)]._itemPrice = _itemPrice;\n         items[address(item)]._state = SupplyChainState.Created;\n\n        emit SupplyChainStep(items[address(item)]._identifier, uint(items[address(item)]._state), address(item), _itemPrice);\n\n        itemIndex++;\n    }\n\n    function triggerPayment(address _itemAddress, uint _itemPrice) public payable {\n\n        emit MyLog(_itemAddress, uint(items[_itemAddress]._itemPrice), uint(items[_itemAddress]._state), msg.value);\n\n        require(items[_itemAddress]._itemPrice == _itemPrice, \"Onlyyyyy full payments accepted\");\n        require(items[_itemAddress]._state == SupplyChainState.Created, \"Item is further in the chain\");\n\n        items[_itemAddress]._state = SupplyChainState.Paid;\n\n        emit SupplyChainStep(items[_itemAddress]._identifier, uint(items[_itemAddress]._state), address(items[_itemAddress]._item), items[_itemAddress]._itemPrice);\n\n    }\n\n    // function triggerDelivery(uint _itemIndex) public onlyOwner {\n    //     require(items[_itemIndex]._state == SupplyChainState.Paid, \"Item need to be fully paid before delivery\");\n    //     items[_itemIndex]._state = SupplyChainState.Delivered;\n\n    //     emit SupplyChainStep(_itemIndex, uint(items[_itemIndex]._state), address(items[_itemIndex]._item));\n\n    // }\n\n\n    function getTotalItemCount() public view returns (uint) {\n        return itemIndex;\n    }\n\n\n    function getItem(address itemAddress) public view returns (string memory) {\n        return items[itemAddress]._identifier;\n    }\n\n}",
  "sourcePath": "/Users/vinit/Dcu-workspace/eth/codebase/project/supply-chain-demo/contracts/ItemManager.sol",
  "compiler": {
    "name": "solc",
    "version": "0.8.0+commit.c7dfd78e.Emscripten.clang"
  },
  "schemaVersion": "3.4.16",
  "updatedAt": "2024-03-01T00:53:56.285Z",
  "networkType": "ethereum",
  "devdoc": {
    "kind": "dev",
    "methods": {
      "owner()": {
        "details": "Returns the address of the current owner."
      },
      "renounceOwnership()": {
        "details": "Leaves the contract without owner. It will not be possible to call `onlyOwner` functions anymore. Can only be called by the current owner. NOTE: Renouncing ownership will leave the contract without an owner, thereby removing any functionality that is only available to the owner."
      },
      "transferOwnership(address)": {
        "details": "Transfers ownership of the contract to a new account (`newOwner`). Can only be called by the current owner."
      }
    },
    "version": 1
  },
  "userdoc": {
    "kind": "user",
    "methods": {},
    "version": 1
  }
}